{"contracts/SimplePharmaChain.sol":{"SimplePharmaChain":{"abi":[{"inputs":[],"stateMutability":"nonpayable","type":"constructor"},{"anonymous":false,"inputs":[{"indexed":true,"internalType":"string","name":"batchId","type":"string"},{"indexed":false,"internalType":"string","name":"productName","type":"string"},{"indexed":false,"internalType":"string","name":"manufacturer","type":"string"},{"indexed":false,"internalType":"string","name":"manufacturerLicenseId","type":"string"},{"indexed":false,"internalType":"string","name":"lotNumber","type":"string"},{"indexed":true,"internalType":"address","name":"creator","type":"address"}],"name":"BatchCreated","type":"event"},{"anonymous":false,"inputs":[{"indexed":true,"internalType":"string","name":"batchId","type":"string"},{"indexed":false,"internalType":"string","name":"reason","type":"string"}],"name":"BatchRecalled","type":"event"},{"anonymous":false,"inputs":[{"indexed":true,"internalType":"string","name":"batchId","type":"string"},{"indexed":false,"internalType":"enum SimplePharmaChain.BatchStatus","name":"newStatus","type":"uint8"}],"name":"BatchStatusUpdated","type":"event"},{"anonymous":false,"inputs":[{"indexed":true,"internalType":"string","name":"batchId","type":"string"},{"indexed":false,"internalType":"string","name":"testType","type":"string"},{"indexed":false,"internalType":"string","name":"testResult","type":"string"},{"indexed":false,"internalType":"string","name":"testerId","type":"string"}],"name":"QualityTestAdded","type":"event"},{"inputs":[{"internalType":"string","name":"_batchId","type":"string"},{"internalType":"string","name":"_testType","type":"string"},{"internalType":"string","name":"_testResult","type":"string"},{"internalType":"string","name":"_testerId","type":"string"}],"name":"addQualityTest","outputs":[],"stateMutability":"nonpayable","type":"function"},{"inputs":[{"internalType":"string","name":"","type":"string"}],"name":"batchExists","outputs":[{"internalType":"bool","name":"","type":"bool"}],"stateMutability":"view","type":"function"},{"inputs":[{"internalType":"uint256","name":"","type":"uint256"}],"name":"batchIds","outputs":[{"internalType":"string","name":"","type":"string"}],"stateMutability":"view","type":"function"},{"inputs":[{"internalType":"string","name":"","type":"string"}],"name":"batches","outputs":[{"internalType":"string","name":"batchId","type":"string"},{"internalType":"string","name":"productName","type":"string"},{"internalType":"string","name":"manufacturer","type":"string"},{"internalType":"string","name":"manufacturerLicenseId","type":"string"},{"internalType":"string","name":"lotNumber","type":"string"},{"internalType":"uint256","name":"quantity","type":"uint256"},{"internalType":"string","name":"manufacturingDate","type":"string"},{"internalType":"string","name":"expiryDate","type":"string"},{"internalType":"string","name":"location","type":"string"},{"internalType":"enum SimplePharmaChain.BatchStatus","name":"status","type":"uint8"},{"internalType":"bool","name":"temperatureSensitive","type":"bool"},{"internalType":"string","name":"storageConditions","type":"string"},{"internalType":"address","name":"creator","type":"address"},{"internalType":"uint256","name":"timestamp","type":"uint256"}],"stateMutability":"view","type":"function"},{"inputs":[{"internalType":"string","name":"_batchId","type":"string"},{"internalType":"string","name":"_productName","type":"string"},{"internalType":"string","name":"_manufacturer","type":"string"},{"internalType":"string","name":"_manufacturerLicenseId","type":"string"},{"internalType":"string","name":"_lotNumber","type":"string"},{"internalType":"uint256","name":"_quantity","type":"uint256"},{"internalType":"string","name":"_manufacturingDate","type":"string"},{"internalType":"string","name":"_expiryDate","type":"string"},{"internalType":"string","name":"_location","type":"string"},{"internalType":"bool","name":"_temperatureSensitive","type":"bool"},{"internalType":"string","name":"_storageConditions","type":"string"}],"name":"createBatch","outputs":[],"stateMutability":"nonpayable","type":"function"},{"inputs":[],"name":"getAllBatchIds","outputs":[{"internalType":"string[]","name":"","type":"string[]"}],"stateMutability":"view","type":"function"},{"inputs":[{"internalType":"string","name":"_batchId","type":"string"}],"name":"getBatch","outputs":[{"components":[{"internalType":"string","name":"batchId","type":"string"},{"internalType":"string","name":"productName","type":"string"},{"internalType":"string","name":"manufacturer","type":"string"},{"internalType":"string","name":"manufacturerLicenseId","type":"string"},{"internalType":"string","name":"lotNumber","type":"string"},{"internalType":"uint256","name":"quantity","type":"uint256"},{"internalType":"string","name":"manufacturingDate","type":"string"},{"internalType":"string","name":"expiryDate","type":"string"},{"internalType":"string","name":"location","type":"string"},{"internalType":"enum SimplePharmaChain.BatchStatus","name":"status","type":"uint8"},{"internalType":"bool","name":"temperatureSensitive","type":"bool"},{"internalType":"string","name":"storageConditions","type":"string"},{"internalType":"address","name":"creator","type":"address"},{"internalType":"uint256","name":"timestamp","type":"uint256"}],"internalType":"struct SimplePharmaChain.Batch","name":"","type":"tuple"}],"stateMutability":"view","type":"function"},{"inputs":[],"name":"getBatchCount","outputs":[{"internalType":"uint256","name":"","type":"uint256"}],"stateMutability":"view","type":"function"},{"inputs":[{"internalType":"string","name":"_batchId","type":"string"}],"name":"getQualityTests","outputs":[{"components":[{"internalType":"string","name":"batchId","type":"string"},{"internalType":"string","name":"testType","type":"string"},{"internalType":"string","name":"testResult","type":"string"},{"internalType":"string","name":"testerId","type":"string"},{"internalType":"address","name":"creator","type":"address"},{"internalType":"uint256","name":"timestamp","type":"uint256"}],"internalType":"struct SimplePharmaChain.QualityTest[]","name":"","type":"tuple[]"}],"stateMutability":"view","type":"function"},{"inputs":[],"name":"owner","outputs":[{"internalType":"address","name":"","type":"address"}],"stateMutability":"view","type":"function"},{"inputs":[{"internalType":"string","name":"","type":"string"},{"internalType":"uint256","name":"","type":"uint256"}],"name":"qualityTests","outputs":[{"internalType":"string","name":"batchId","type":"string"},{"internalType":"string","name":"testType","type":"string"},{"internalType":"string","name":"testResult","type":"string"},{"internalType":"string","name":"testerId","type":"string"},{"internalType":"address","name":"creator","type":"address"},{"internalType":"uint256","name":"timestamp","type":"uint256"}],"stateMutability":"view","type":"function"},{"inputs":[{"internalType":"string","name":"_batchId","type":"string"},{"internalType":"string","name":"reason","type":"string"}],"name":"recallBatch","outputs":[],"stateMutability":"nonpayable","type":"function"},{"inputs":[{"internalType":"string","name":"_batchId","type":"string"},{"internalType":"uint256","name":"_newStatus","type":"uint256"}],"name":"updateBatchStatus","outputs":[],"stateMutability":"nonpayable","type":"function"}],"evm":{"bytecode":{"linkReferences":{},"object":"6080806040523461002857600080546001600160a01b0319163317905561241f908161002e8239f35b600080fdfe610240604052600436101561001357600080fd5b60003560e01c8063123ecac814611f545780631316a90814611d5f57806329b0384314610f795780637ef1446a14610dbf5780638da5cb5b14610d9657806395978f2514610cb5578063a8fabfa514610c97578063b3d346b914610c48578063bce0694714610b5f578063e790398814610afe578063ea65429014610a21578063f1d7130c146103e05763f9ca4274146100ac57600080fd5b346103db5760203660031901126103db576004356001600160401b0381116103db5760206100e161018a9236906004016120c8565b60006101a06040516100f281612045565b6060815260608582015260606040820152606080820152606060808201528260a0820152606060c0820152606060e08201526060610100820152826101208201528261014082015260606101608201528261018082015201526040519061017960ff82519385818186019661016881838a6120e6565b81016002815203019020541661236f565b6040519384928392519283916120e6565b81016001815203019020604051906101a182612045565b6101aa81612195565b82526101b860018201612195565b60208301526101c960028201612195565b60408301526101da60038201612195565b60608301526101eb60048201612195565b6080830152600581015460a083015261020660068201612195565b60c083015261021760078201612195565b60e083015261022860088201612195565b610100830152600981015490600460ff831610156103c55760ff8281600c941661012086015260081c161515610140840152610266600a8201612195565b61016084015260018060a01b03600b8201541661018084015201546101a08201526040518091602082526101a06103a561036b61035361033c61031c6103066102f06102da6102c48b6101c060208d519201526101e08d0190612109565b60208b01518c8203601f190160408e0152612109565b60408a01518b8203601f190160608d0152612109565b60608901518a8203601f190160808c0152612109565b6080880151898203601f190160a08b0152612109565b60a087015160c089015260c0870151601f198983030160e08a0152612109565b60e0860151878203601f1901610100890152612109565b610100850151868203601f1901610120880152612109565b61037f61012085015161014087019061223b565b6101408401511515610160860152610160840151601f1986830301610180870152612109565b6101808301516001600160a01b0316848301529101516101c08301520390f35b634e487b7160e01b600052602160045260246000fd5b600080fd5b346103db5760803660031901126103db576004356001600160401b0381116103db576104109036906004016120c8565b6024356001600160401b0381116103db5761042f9036906004016120c8565b6044356001600160401b0381116103db5761044e9036906004016120c8565b916064356001600160401b0381116103db5761046e9036906004016120c8565b9060405161048c60ff835192602081818701956101688183896120e6565b8351156109e7578451156109ab57825115610971576104e46020604051926104b38461202a565b84845286828501528760408501528560608501523360808501524260a08501526040518093819287519283916120e6565b810160038152030190208054600160401b8110156107d45761050b91600182018155612279565b91909161095b5780518051906001600160401b0382116107d457819061053b82610535875461215b565b876122e2565b602090601f83116001146108ef576000926108e4575b50508160011b916000199060031b1c19161782555b60208101518051906001600160401b0382116107d45781906105988261058f600188015461215b565b600188016122e2565b602090601f831160011461087257600092610867575b50508160011b916000199060031b1c19161760018301555b60408101518051906001600160401b0382116107d45781906105f8826105ef600288015461215b565b600288016122e2565b602090601f83116001146107f5576000926107ea575b50508160011b916000199060031b1c19161760028301555b60608101518051906001600160401b0382116107d4576106568261064d600387015461215b565b600387016122e2565b602090601f831160011461072e579461071e94600560a0610702999686610710976106ed977f27baac6a97eb6e805295ef67484632385567a71ceb8322f0b97cdc74f71db2649e9c600092610723575b50508160011b916000199060031b1c19161760038501555b60048401600180841b036080830151166bffffffffffffffffffffffff841b82541617905501519101556123b2565b96604051958695606087526060870190612109565b908582036020870152612109565b908382036040850152612109565b0390a2005b015190508f806106a6565b906003850160005260206000209160005b601f19851681106107bc575094600560a061070299966001876106ed977f27baac6a97eb6e805295ef67484632385567a71ceb8322f0b97cdc74f71db2649e9c9761071e9c6107109b601f198116106107a3575b505050811b0160038501556106be565b015160001960f88460031b161c191690558f8080610793565b9192602060018192868501518155019401920161073f565b634e487b7160e01b600052604160045260246000fd5b01519050888061060e565b9250600285016000526020600020906000935b601f198416851061084c576001945083601f19811610610833575b505050811b016002830155610626565b015160001960f88460031b161c19169055888080610823565b81810151835560209485019460019093019290910190610808565b0151905088806105ae565b9250600185016000526020600020906000935b601f19841685106108c9576001945083601f198116106108b0575b505050811b0160018301556105c6565b015160001960f88460031b161c191690558880806108a0565b81810151835560209485019460019093019290910190610885565b015190508880610551565b9250846000526020600020906000935b601f1984168510610940576001945083601f19811610610927575b505050811b018255610566565b015160001960f88460031b161c1916905588808061091a565b818101518355602094850194600190930192909101906108ff565b634e487b7160e01b600052600060045260246000fd5b60405162461bcd60e51b815260206004820152601260248201527115195cdd195c881251081c995c5d5a5c995960721b6044820152606490fd5b60405162461bcd60e51b815260206004820152601460248201527315195cdd081c995cdd5b1d081c995c5d5a5c995960621b6044820152606490fd5b60405162461bcd60e51b815260206004820152601260248201527115195cdd081d1e5c19481c995c5d5a5c995960721b6044820152606490fd5b346103db57610a2f36612248565b9060405190610a4e60ff8251936020818186019661016881838a6120e6565b60038311610ac85760048310156103c557610ab7602091610ab2856009610aa2867f67299131a74fbf9a478b698dd6389d28f2a6c38727ebdafaedc6b1aeff674f11986040518093819289519283916120e6565b8101600181520301902001612336565b6123b2565b92610ac5604051809261223b565ba2005b60405162461bcd60e51b815260206004820152600e60248201526d496e76616c69642073746174757360901b6044820152606490fd5b346103db5760203660031901126103db576004356001600160401b0381116103db5760ff610b496020610b36819436906004016120c8565b81604051938285809451938492016120e6565b8101600281520301902054166040519015158152f35b346103db5760003660031901126103db57600454610b7c816123d2565b90610b8a6040519283612061565b808252602090818301908160046000527f8a35acfbc15ff81a39ae7d344fd709f28e8600b4aa8c65c6b64bfe7fe36bd19b6000915b838310610c265750505050604051918083019381845251809452604083019360408160051b85010192916000955b828710610bfa5785850386f35b909192938280610c16600193603f198a82030186528851612109565b9601920196019592919092610bed565b6001868192610c37859a999a612195565b815201920192019190959495610bbf565b346103db5760203660031901126103db576004356004548110156103db57610c6f906122ab565b61095b57610c7f610c9391612195565b604051918291602083526020830190612109565b0390f35b346103db5760003660031901126103db576020600454604051908152f35b346103db576020610cdd610cc836612248565b929081604051938285809451938492016120e6565b8101600381520301902080548210156103db57610d5d91610cfd91612279565b50610d0781612195565b90610d1460018201612195565b610d87610d2360028401612195565b610d79610d3260038601612195565b91610d6b600560018060a01b0360048901541697015495604051998a9960c08b5260c08b0190612109565b9089820360208b0152612109565b908782036040890152612109565b908582036060870152612109565b91608084015260a08301520390f35b346103db5760003660031901126103db576000546040516001600160a01b039091168152602090f35b346103db5760203660031901126103db576004356001600160401b0381116103db57610def9036906004016120c8565b6040518181809351602081930191610e06926120e6565b810160018152036020019020610e1b81612195565b610e2760018301612195565b91610e3460028201612195565b610e4060038301612195565b610e4c60048401612195565b6005840154610e5d60068601612195565b610e6960078701612195565b90610e7660088801612195565b92600988015494600a8901610e8a90612195565b96600160a01b60019003600b8b01541699600c0154986040519c8d9c8d6101c09081815201610eb891612109565b8d810360208f0152610ec991612109565b8c810360408e0152610eda91612109565b8b810360608d0152610eeb91612109565b8a810360808c0152610efc91612109565b9060a08a015288810360c08a0152610f1391612109565b87810360e0890152610f2491612109565b868103610100880152610f3691612109565b90610f48610120870160ff831661223b565b60081c60ff161515610140860152848103610160860152610f6891612109565b916101808401526101a08301520390f35b346103db576101603660031901126103db576004356001600160401b0381116103db57610faa90369060040161212e565b908161020052806080526024356001600160401b0381116103db57610fd390369060040161212e565b60a052610160526044356001600160401b0381116103db57610ff990369060040161212e565b60e052610100526064356001600160401b0381116103db5761101f90369060040161212e565b6101c052610180526084356001600160401b0381116103db5761104690369060040161212e565b610120526101e05260c4356001600160401b0381116103db5761106d90369060040161212e565b929060e4356001600160401b0381116103db5761108e90369060040161212e565b610104356001600160401b0381116103db576110ae90369060040161212e565b949095610124358061014052801515036103db5761014435916001600160401b0383116103db576110e560ff93369060040161212e565b6101a05260c052604051918237600261020051820152602081610200518101030190205416611d23576102005115611cea5760a05115611cad5760a43515611c68576111cb6111da936111e9976111426040518061022052612045565b6111523661020051608051612082565b61022051526111673660a05161016051612082565b602061022051015261117f3660e05161010051612082565b6040610220510152611198366101c05161018051612082565b60606102205101526111b136610120516101e051612082565b608061022051015260a43560a06102205101523691612082565b60c06102205101523691612082565b60e06102205101523691612082565b610100610220510152600061012061022051015261014051151561014061022051015261121c366101a05160c051612082565b61016061022051015233610180610220510152426101a06102205101526040516102005160805182376001610200518201526020816102005181010301902061022051518051906001600160401b0382116107d457819061128782611281865461215b565b866122e2565b602090601f8311600114611bfc57600092611bf1575b50508160011b916000199060031b1c19161781555b60206102205101518051906001600160401b0382116107d45781906112e7826112de600187015461215b565b600187016122e2565b602090601f8311600114611b7f57600092611b74575b50508160011b916000199060031b1c19161760018201555b60406102205101518051906001600160401b0382116107d457819061134a82611341600287015461215b565b600287016122e2565b602090601f8311600114611b0257600092611af7575b50508160011b916000199060031b1c19161760028201555b60606102205101518051906001600160401b0382116107d45781906113a48261064d600387015461215b565b602090601f8311600114611a8557600092611a7a575b50508160011b916000199060031b1c19161760038201555b60806102205101518051906001600160401b0382116107d4578190611407826113fe600487015461215b565b600487016122e2565b602090601f8311600114611a08576000926119fd575b50508160011b916000199060031b1c19161760048201555b60c06102205160a0810151600584015501518051906001600160401b0382116107d45781906114748261146b600687015461215b565b600687016122e2565b602090601f831160011461198b57600092611980575b50508160011b916000199060031b1c19161760068201555b60e06102205101518051906001600160401b0382116107d45781906114d7826114ce600787015461215b565b600787016122e2565b602090601f831160011461190e57600092611903575b50508160011b916000199060031b1c19161760078201555b6101006102205101518051906001600160401b0382116107d457819061153b82611532600887015461215b565b600887016122e2565b602090601f831160011461189157600092611886575b50508160011b916000199060031b1c19161760088201555b61012061022051015160048110156103c5576115889060098301612336565b61016061022051610140810151151561ff0060098501549160081b169061ff00191617600984015501518051906001600160401b0382116107d45781906115df826115d6600a87015461215b565b600a87016122e2565b602090601f831160011461181457600092611809575b50508160011b916000199060031b1c191617600a8201555b600c6101a0600b8301610220519060018060a01b03610180830151166bffffffffffffffffffffffff60a01b82541617905501519101556040516102005160805182376020816102005181016002815203019020600160ff19825416179055600454600160401b8110156107d45780600161168b92016004556122ab565b61095b57610200516001600160401b0381116107d4576116b5906116af835461215b565b836122e2565b60009061020051601f811160011461179d5750906000610200519182611790575b508160011b916000199060031b1c19161790555b604051610200516080518237806102005181016000815203902060405190608082527f3ffd5cc5fc3ec61dba843357d1211064d432ad494cad457111dacd91eaa9aee261176f61175a6117466080860160a0516101605161234e565b858103602087015260e0516101005161234e565b84810360408601526101c0516101805161234e565b9280840360608201528061178b3395610120516101e05161234e565b0390a3005b90506080510135836116d6565b816000526020600020600093608051905b601f19841686106117f157600194955083601f198116106117d7575b505050811b0190556116ea565b0135600019600384901b60f8161c191690558380806117ca565b916020600181928585013581550193019501946117ae565b0151905083806115f5565b9250600a84016000526020600020906000935b601f198416851061186b576001945083601f19811610611852575b505050811b01600a82015561160d565b015160001960f88460031b161c19169055838080611842565b81810151835560209485019460019093019290910190611827565b015190508380611551565b9250600884016000526020600020906000935b601f19841685106118e8576001945083601f198116106118cf575b505050811b016008820155611569565b015160001960f88460031b161c191690558380806118bf565b818101518355602094850194600190930192909101906118a4565b0151905083806114ed565b9250600784016000526020600020906000935b601f1984168510611965576001945083601f1981161061194c575b505050811b016007820155611505565b015160001960f88460031b161c1916905583808061193c565b81810151835560209485019460019093019290910190611921565b01519050838061148a565b9250600684016000526020600020906000935b601f19841685106119e2576001945083601f198116106119c9575b505050811b0160068201556114a2565b015160001960f88460031b161c191690558380806119b9565b8181015183556020948501946001909301929091019061199e565b01519050838061141d565b9250600484016000526020600020906000935b601f1984168510611a5f576001945083601f19811610611a46575b505050811b016004820155611435565b015160001960f88460031b161c19169055838080611a36565b81810151835560209485019460019093019290910190611a1b565b0151905083806113ba565b9250600384016000526020600020906000935b601f1984168510611adc576001945083601f19811610611ac3575b505050811b0160038201556113d2565b015160001960f88460031b161c19169055838080611ab3565b81810151835560209485019460019093019290910190611a98565b015190508380611360565b9250600284016000526020600020906000935b601f1984168510611b59576001945083601f19811610611b40575b505050811b016002820155611378565b015160001960f88460031b161c19169055838080611b30565b81810151835560209485019460019093019290910190611b15565b0151905083806112fd565b9250600184016000526020600020906000935b601f1984168510611bd6576001945083601f19811610611bbd575b505050811b016001820155611315565b015160001960f88460031b161c19169055838080611bad565b81810151835560209485019460019093019290910190611b92565b01519050838061129d565b9250836000526020600020906000935b601f1984168510611c4d576001945083601f19811610611c34575b505050811b0181556112b2565b015160001960f88460031b161c19169055838080611c27565b81810151835560209485019460019093019290910190611c0c565b60405162461bcd60e51b815260206004820152601f60248201527f5175616e74697479206d7573742062652067726561746572207468616e2030006044820152606490fd5b60405162461bcd60e51b8152602060048201526015602482015274141c9bd91d58dd081b985b59481c995c5d5a5c9959605a1b6044820152606490fd5b60405162461bcd60e51b815260206004820152601160248201527010985d18da081251081c995c5d5a5c9959607a1b6044820152606490fd5b60405162461bcd60e51b8152602060048201526014602482015273426174636820616c72656164792065786973747360601b6044820152606490fd5b346103db576020806003193601126103db576004356001600160401b0381116103db57611d909036906004016120c8565b90604051825192611dc160ff84830195611dab8186896120e6565b840193858160029687815203019020541661236f565b611dd3604051948592519283916120e6565b83019282816003958681520301902090815490611def826123d2565b94611dfd6040519687612061565b82865284860191829460005285600020916000935b858510611ed957604080518981528a51818b01819052600092600582901b83018101918b918d9085015b828710611e495785850386f35b909192938280600192603f19898203018552875190611eae611e9b611e89611e79855160c0808752860190612109565b8686015185820388870152612109565b60408501518482036040860152612109565b6060808501519084830390850152612109565b916080868060a01b0381830151169083015260a0809101519101529601920196019592919092611e3c565b60068860019260409b9a9b51611eee8161202a565b611ef788612195565b8152611f04858901612195565b83820152611f13878901612195565b6040820152611f23868901612195565b6060820152848060a01b036004890154166080820152600588015460a0820152815201940194019392979697611e12565b346103db5760403660031901126103db576001600160401b036004358181116103db57611f859036906004016120c8565b906024359081116103db5761071e612015611fc57faccbcca2781383a7c9aff56f00c185ca721fc1e34bf89ddd4d18c757d78e76289336906004016120c8565b936009611ffa6020604051611fe960ff8651928481818a01956101688183896120e6565b6040518093819287519283916120e6565b8101600181520301902001600360ff198254161790556123b2565b92604051918291602083526020830190612109565b60c081019081106001600160401b038211176107d457604052565b6101c081019081106001600160401b038211176107d457604052565b90601f801991011681019081106001600160401b038211176107d457604052565b9291926001600160401b0382116107d457604051916120ab601f8201601f191660200184612061565b8294818452818301116103db578281602093846000960137010152565b9080601f830112156103db578160206120e393359101612082565b90565b60005b8381106120f95750506000910152565b81810151838201526020016120e9565b90602091612122815180928185528580860191016120e6565b601f01601f1916010190565b9181601f840112156103db578235916001600160401b0383116103db57602083818601950101116103db57565b90600182811c9216801561218b575b602083101461217557565b634e487b7160e01b600052602260045260246000fd5b91607f169161216a565b90604051918260008254926121a98461215b565b90818452600194858116908160001461221857506001146121d5575b50506121d392500383612061565b565b9093915060005260209081600020936000915b8183106122005750506121d3935082010138806121c5565b855488840185015294850194879450918301916121e8565b9150506121d394506020925060ff191682840152151560051b82010138806121c5565b9060048210156103c55752565b60406003198201126103db57600435906001600160401b0382116103db57612272916004016120c8565b9060243590565b8054821015612295576000526006602060002091020190600090565b634e487b7160e01b600052603260045260246000fd5b6004548110156122955760046000527f8a35acfbc15ff81a39ae7d344fd709f28e8600b4aa8c65c6b64bfe7fe36bd19b0190600090565b90601f81116122f057505050565b600091825260208220906020601f850160051c8301941061232c575b601f0160051c01915b82811061232157505050565b818155600101612315565b909250829061230c565b9060048110156103c55760ff80198354169116179055565b908060209392818452848401376000828201840152601f01601f1916010190565b1561237657565b60405162461bcd60e51b815260206004820152601460248201527310985d18da08191bd95cc81b9bdd08195e1a5cdd60621b6044820152606490fd5b6123ca906020604051928284809451938492016120e6565b810103902090565b6001600160401b0381116107d45760051b6020019056fea26469706673582212207f8467580074c9af5b8ad8700eebee38eab3a112da61645380b6341fa1b52c7a64736f6c63430008140033","opcodes":"PUSH1 0x80 DUP1 PUSH1 0x40 MSTORE CALLVALUE PUSH2 0x28 JUMPI PUSH1 0x0 DUP1 SLOAD PUSH1 0x1 PUSH1 0x1 PUSH1 0xA0 SHL SUB NOT AND CALLER OR SWAP1 SSTORE PUSH2 0x241F SWAP1 DUP2 PUSH2 0x2E DUP3 CODECOPY RETURN JUMPDEST PUSH1 0x0 DUP1 REVERT INVALID PUSH2 0x240 PUSH1 0x40 MSTORE PUSH1 0x4 CALLDATASIZE LT ISZERO PUSH2 0x13 JUMPI PUSH1 0x0 DUP1 REVERT JUMPDEST PUSH1 0x0 CALLDATALOAD PUSH1 0xE0 SHR DUP1 PUSH4 0x123ECAC8 EQ PUSH2 0x1F54 JUMPI DUP1 PUSH4 0x1316A908 EQ PUSH2 0x1D5F JUMPI DUP1 PUSH4 0x29B03843 EQ PUSH2 0xF79 JUMPI DUP1 PUSH4 0x7EF1446A EQ PUSH2 0xDBF JUMPI DUP1 PUSH4 0x8DA5CB5B EQ PUSH2 0xD96 JUMPI DUP1 PUSH4 0x95978F25 EQ PUSH2 0xCB5 JUMPI DUP1 PUSH4 0xA8FABFA5 EQ PUSH2 0xC97 JUMPI DUP1 PUSH4 0xB3D346B9 EQ PUSH2 0xC48 JUMPI DUP1 PUSH4 0xBCE06947 EQ PUSH2 0xB5F JUMPI DUP1 PUSH4 0xE7903988 EQ PUSH2 0xAFE JUMPI DUP1 PUSH4 0xEA654290 EQ PUSH2 0xA21 JUMPI DUP1 PUSH4 0xF1D7130C EQ PUSH2 0x3E0 JUMPI PUSH4 0xF9CA4274 EQ PUSH2 0xAC JUMPI PUSH1 0x0 DUP1 REVERT JUMPDEST CALLVALUE PUSH2 0x3DB JUMPI PUSH1 0x20 CALLDATASIZE PUSH1 0x3 NOT ADD SLT PUSH2 0x3DB JUMPI PUSH1 0x4 CALLDATALOAD PUSH1 0x1 PUSH1 0x1 PUSH1 0x40 SHL SUB DUP2 GT PUSH2 0x3DB JUMPI PUSH1 0x20 PUSH2 0xE1 PUSH2 0x18A SWAP3 CALLDATASIZE SWAP1 PUSH1 0x4 ADD PUSH2 0x20C8 JUMP JUMPDEST PUSH1 0x0 PUSH2 0x1A0 PUSH1 0x40 MLOAD PUSH2 0xF2 DUP2 PUSH2 0x2045 JUMP JUMPDEST PUSH1 0x60 DUP2 MSTORE PUSH1 0x60 DUP6 DUP3 ADD MSTORE PUSH1 0x60 PUSH1 0x40 DUP3 ADD MSTORE PUSH1 0x60 DUP1 DUP3 ADD MSTORE PUSH1 0x60 PUSH1 0x80 DUP3 ADD MSTORE DUP3 PUSH1 0xA0 DUP3 ADD MSTORE PUSH1 0x60 PUSH1 0xC0 DUP3 ADD MSTORE PUSH1 0x60 PUSH1 0xE0 DUP3 ADD MSTORE PUSH1 0x60 PUSH2 0x100 DUP3 ADD MSTORE DUP3 PUSH2 0x120 DUP3 ADD MSTORE DUP3 PUSH2 0x140 DUP3 ADD MSTORE PUSH1 0x60 PUSH2 0x160 DUP3 ADD MSTORE DUP3 PUSH2 0x180 DUP3 ADD MSTORE ADD MSTORE PUSH1 0x40 MLOAD SWAP1 PUSH2 0x179 PUSH1 0xFF DUP3 MLOAD SWAP4 DUP6 DUP2 DUP2 DUP7 ADD SWAP7 PUSH2 0x168 DUP2 DUP4 DUP11 PUSH2 0x20E6 JUMP JUMPDEST DUP2 ADD PUSH1 0x2 DUP2 MSTORE SUB ADD SWAP1 KECCAK256 SLOAD AND PUSH2 0x236F JUMP JUMPDEST PUSH1 0x40 MLOAD SWAP4 DUP5 SWAP3 DUP4 SWAP3 MLOAD SWAP3 DUP4 SWAP2 PUSH2 0x20E6 JUMP JUMPDEST DUP2 ADD PUSH1 0x1 DUP2 MSTORE SUB ADD SWAP1 KECCAK256 PUSH1 0x40 MLOAD SWAP1 PUSH2 0x1A1 DUP3 PUSH2 0x2045 JUMP JUMPDEST PUSH2 0x1AA DUP2 PUSH2 0x2195 JUMP JUMPDEST DUP3 MSTORE PUSH2 0x1B8 PUSH1 0x1 DUP3 ADD PUSH2 0x2195 JUMP JUMPDEST PUSH1 0x20 DUP4 ADD MSTORE PUSH2 0x1C9 PUSH1 0x2 DUP3 ADD PUSH2 0x2195 JUMP JUMPDEST PUSH1 0x40 DUP4 ADD MSTORE PUSH2 0x1DA PUSH1 0x3 DUP3 ADD PUSH2 0x2195 JUMP JUMPDEST PUSH1 0x60 DUP4 ADD MSTORE PUSH2 0x1EB PUSH1 0x4 DUP3 ADD PUSH2 0x2195 JUMP JUMPDEST PUSH1 0x80 DUP4 ADD MSTORE PUSH1 0x5 DUP2 ADD SLOAD PUSH1 0xA0 DUP4 ADD MSTORE PUSH2 0x206 PUSH1 0x6 DUP3 ADD PUSH2 0x2195 JUMP JUMPDEST PUSH1 0xC0 DUP4 ADD MSTORE PUSH2 0x217 PUSH1 0x7 DUP3 ADD PUSH2 0x2195 JUMP JUMPDEST PUSH1 0xE0 DUP4 ADD MSTORE PUSH2 0x228 PUSH1 0x8 DUP3 ADD PUSH2 0x2195 JUMP JUMPDEST PUSH2 0x100 DUP4 ADD MSTORE PUSH1 0x9 DUP2 ADD SLOAD SWAP1 PUSH1 0x4 PUSH1 0xFF DUP4 AND LT ISZERO PUSH2 0x3C5 JUMPI PUSH1 0xFF DUP3 DUP2 PUSH1 0xC SWAP5 AND PUSH2 0x120 DUP7 ADD MSTORE PUSH1 0x8 SHR AND ISZERO ISZERO PUSH2 0x140 DUP5 ADD MSTORE PUSH2 0x266 PUSH1 0xA DUP3 ADD PUSH2 0x2195 JUMP JUMPDEST PUSH2 0x160 DUP5 ADD MSTORE PUSH1 0x1 DUP1 PUSH1 0xA0 SHL SUB PUSH1 0xB DUP3 ADD SLOAD AND PUSH2 0x180 DUP5 ADD MSTORE ADD SLOAD PUSH2 0x1A0 DUP3 ADD MSTORE PUSH1 0x40 MLOAD DUP1 SWAP2 PUSH1 0x20 DUP3 MSTORE PUSH2 0x1A0 PUSH2 0x3A5 PUSH2 0x36B PUSH2 0x353 PUSH2 0x33C PUSH2 0x31C PUSH2 0x306 PUSH2 0x2F0 PUSH2 0x2DA PUSH2 0x2C4 DUP12 PUSH2 0x1C0 PUSH1 0x20 DUP14 MLOAD SWAP3 ADD MSTORE PUSH2 0x1E0 DUP14 ADD SWAP1 PUSH2 0x2109 JUMP JUMPDEST PUSH1 0x20 DUP12 ADD MLOAD DUP13 DUP3 SUB PUSH1 0x1F NOT ADD PUSH1 0x40 DUP15 ADD MSTORE PUSH2 0x2109 JUMP JUMPDEST PUSH1 0x40 DUP11 ADD MLOAD DUP12 DUP3 SUB PUSH1 0x1F NOT ADD PUSH1 0x60 DUP14 ADD MSTORE PUSH2 0x2109 JUMP JUMPDEST PUSH1 0x60 DUP10 ADD MLOAD DUP11 DUP3 SUB PUSH1 0x1F NOT ADD PUSH1 0x80 DUP13 ADD MSTORE PUSH2 0x2109 JUMP JUMPDEST PUSH1 0x80 DUP9 ADD MLOAD DUP10 DUP3 SUB PUSH1 0x1F NOT ADD PUSH1 0xA0 DUP12 ADD MSTORE PUSH2 0x2109 JUMP JUMPDEST PUSH1 0xA0 DUP8 ADD MLOAD PUSH1 0xC0 DUP10 ADD MSTORE PUSH1 0xC0 DUP8 ADD MLOAD PUSH1 0x1F NOT DUP10 DUP4 SUB ADD PUSH1 0xE0 DUP11 ADD MSTORE PUSH2 0x2109 JUMP JUMPDEST PUSH1 0xE0 DUP7 ADD MLOAD DUP8 DUP3 SUB PUSH1 0x1F NOT ADD PUSH2 0x100 DUP10 ADD MSTORE PUSH2 0x2109 JUMP JUMPDEST PUSH2 0x100 DUP6 ADD MLOAD DUP7 DUP3 SUB PUSH1 0x1F NOT ADD PUSH2 0x120 DUP9 ADD MSTORE PUSH2 0x2109 JUMP JUMPDEST PUSH2 0x37F PUSH2 0x120 DUP6 ADD MLOAD PUSH2 0x140 DUP8 ADD SWAP1 PUSH2 0x223B JUMP JUMPDEST PUSH2 0x140 DUP5 ADD MLOAD ISZERO ISZERO PUSH2 0x160 DUP7 ADD MSTORE PUSH2 0x160 DUP5 ADD MLOAD PUSH1 0x1F NOT DUP7 DUP4 SUB ADD PUSH2 0x180 DUP8 ADD MSTORE PUSH2 0x2109 JUMP JUMPDEST PUSH2 0x180 DUP4 ADD MLOAD PUSH1 0x1 PUSH1 0x1 PUSH1 0xA0 SHL SUB AND DUP5 DUP4 ADD MSTORE SWAP2 ADD MLOAD PUSH2 0x1C0 DUP4 ADD MSTORE SUB SWAP1 RETURN JUMPDEST PUSH4 0x4E487B71 PUSH1 0xE0 SHL PUSH1 0x0 MSTORE PUSH1 0x21 PUSH1 0x4 MSTORE PUSH1 0x24 PUSH1 0x0 REVERT JUMPDEST PUSH1 0x0 DUP1 REVERT JUMPDEST CALLVALUE PUSH2 0x3DB JUMPI PUSH1 0x80 CALLDATASIZE PUSH1 0x3 NOT ADD SLT PUSH2 0x3DB JUMPI PUSH1 0x4 CALLDATALOAD PUSH1 0x1 PUSH1 0x1 PUSH1 0x40 SHL SUB DUP2 GT PUSH2 0x3DB JUMPI PUSH2 0x410 SWAP1 CALLDATASIZE SWAP1 PUSH1 0x4 ADD PUSH2 0x20C8 JUMP JUMPDEST PUSH1 0x24 CALLDATALOAD PUSH1 0x1 PUSH1 0x1 PUSH1 0x40 SHL SUB DUP2 GT PUSH2 0x3DB JUMPI PUSH2 0x42F SWAP1 CALLDATASIZE SWAP1 PUSH1 0x4 ADD PUSH2 0x20C8 JUMP JUMPDEST PUSH1 0x44 CALLDATALOAD PUSH1 0x1 PUSH1 0x1 PUSH1 0x40 SHL SUB DUP2 GT PUSH2 0x3DB JUMPI PUSH2 0x44E SWAP1 CALLDATASIZE SWAP1 PUSH1 0x4 ADD PUSH2 0x20C8 JUMP JUMPDEST SWAP2 PUSH1 0x64 CALLDATALOAD PUSH1 0x1 PUSH1 0x1 PUSH1 0x40 SHL SUB DUP2 GT PUSH2 0x3DB JUMPI PUSH2 0x46E SWAP1 CALLDATASIZE SWAP1 PUSH1 0x4 ADD PUSH2 0x20C8 JUMP JUMPDEST SWAP1 PUSH1 0x40 MLOAD PUSH2 0x48C PUSH1 0xFF DUP4 MLOAD SWAP3 PUSH1 0x20 DUP2 DUP2 DUP8 ADD SWAP6 PUSH2 0x168 DUP2 DUP4 DUP10 PUSH2 0x20E6 JUMP JUMPDEST DUP4 MLOAD ISZERO PUSH2 0x9E7 JUMPI DUP5 MLOAD ISZERO PUSH2 0x9AB JUMPI DUP3 MLOAD ISZERO PUSH2 0x971 JUMPI PUSH2 0x4E4 PUSH1 0x20 PUSH1 0x40 MLOAD SWAP3 PUSH2 0x4B3 DUP5 PUSH2 0x202A JUMP JUMPDEST DUP5 DUP5 MSTORE DUP7 DUP3 DUP6 ADD MSTORE DUP8 PUSH1 0x40 DUP6 ADD MSTORE DUP6 PUSH1 0x60 DUP6 ADD MSTORE CALLER PUSH1 0x80 DUP6 ADD MSTORE TIMESTAMP PUSH1 0xA0 DUP6 ADD MSTORE PUSH1 0x40 MLOAD DUP1 SWAP4 DUP2 SWAP3 DUP8 MLOAD SWAP3 DUP4 SWAP2 PUSH2 0x20E6 JUMP JUMPDEST DUP2 ADD PUSH1 0x3 DUP2 MSTORE SUB ADD SWAP1 KECCAK256 DUP1 SLOAD PUSH1 0x1 PUSH1 0x40 SHL DUP2 LT ISZERO PUSH2 0x7D4 JUMPI PUSH2 0x50B SWAP2 PUSH1 0x1 DUP3 ADD DUP2 SSTORE PUSH2 0x2279 JUMP JUMPDEST SWAP2 SWAP1 SWAP2 PUSH2 0x95B JUMPI DUP1 MLOAD DUP1 MLOAD SWAP1 PUSH1 0x1 PUSH1 0x1 PUSH1 0x40 SHL SUB DUP3 GT PUSH2 0x7D4 JUMPI DUP2 SWAP1 PUSH2 0x53B DUP3 PUSH2 0x535 DUP8 SLOAD PUSH2 0x215B JUMP JUMPDEST DUP8 PUSH2 0x22E2 JUMP JUMPDEST PUSH1 0x20 SWAP1 PUSH1 0x1F DUP4 GT PUSH1 0x1 EQ PUSH2 0x8EF JUMPI PUSH1 0x0 SWAP3 PUSH2 0x8E4 JUMPI JUMPDEST POP POP DUP2 PUSH1 0x1 SHL SWAP2 PUSH1 0x0 NOT SWAP1 PUSH1 0x3 SHL SHR NOT AND OR DUP3 SSTORE JUMPDEST PUSH1 0x20 DUP2 ADD MLOAD DUP1 MLOAD SWAP1 PUSH1 0x1 PUSH1 0x1 PUSH1 0x40 SHL SUB DUP3 GT PUSH2 0x7D4 JUMPI DUP2 SWAP1 PUSH2 0x598 DUP3 PUSH2 0x58F PUSH1 0x1 DUP9 ADD SLOAD PUSH2 0x215B JUMP JUMPDEST PUSH1 0x1 DUP9 ADD PUSH2 0x22E2 JUMP JUMPDEST PUSH1 0x20 SWAP1 PUSH1 0x1F DUP4 GT PUSH1 0x1 EQ PUSH2 0x872 JUMPI PUSH1 0x0 SWAP3 PUSH2 0x867 JUMPI JUMPDEST POP POP DUP2 PUSH1 0x1 SHL SWAP2 PUSH1 0x0 NOT SWAP1 PUSH1 0x3 SHL SHR NOT AND OR PUSH1 0x1 DUP4 ADD SSTORE JUMPDEST PUSH1 0x40 DUP2 ADD MLOAD DUP1 MLOAD SWAP1 PUSH1 0x1 PUSH1 0x1 PUSH1 0x40 SHL SUB DUP3 GT PUSH2 0x7D4 JUMPI DUP2 SWAP1 PUSH2 0x5F8 DUP3 PUSH2 0x5EF PUSH1 0x2 DUP9 ADD SLOAD PUSH2 0x215B JUMP JUMPDEST PUSH1 0x2 DUP9 ADD PUSH2 0x22E2 JUMP JUMPDEST PUSH1 0x20 SWAP1 PUSH1 0x1F DUP4 GT PUSH1 0x1 EQ PUSH2 0x7F5 JUMPI PUSH1 0x0 SWAP3 PUSH2 0x7EA JUMPI JUMPDEST POP POP DUP2 PUSH1 0x1 SHL SWAP2 PUSH1 0x0 NOT SWAP1 PUSH1 0x3 SHL SHR NOT AND OR PUSH1 0x2 DUP4 ADD SSTORE JUMPDEST PUSH1 0x60 DUP2 ADD MLOAD DUP1 MLOAD SWAP1 PUSH1 0x1 PUSH1 0x1 PUSH1 0x40 SHL SUB DUP3 GT PUSH2 0x7D4 JUMPI PUSH2 0x656 DUP3 PUSH2 0x64D PUSH1 0x3 DUP8 ADD SLOAD PUSH2 0x215B JUMP JUMPDEST PUSH1 0x3 DUP8 ADD PUSH2 0x22E2 JUMP JUMPDEST PUSH1 0x20 SWAP1 PUSH1 0x1F DUP4 GT PUSH1 0x1 EQ PUSH2 0x72E JUMPI SWAP5 PUSH2 0x71E SWAP5 PUSH1 0x5 PUSH1 0xA0 PUSH2 0x702 SWAP10 SWAP7 DUP7 PUSH2 0x710 SWAP8 PUSH2 0x6ED SWAP8 PUSH32 0x27BAAC6A97EB6E805295EF67484632385567A71CEB8322F0B97CDC74F71DB264 SWAP15 SWAP13 PUSH1 0x0 SWAP3 PUSH2 0x723 JUMPI JUMPDEST POP POP DUP2 PUSH1 0x1 SHL SWAP2 PUSH1 0x0 NOT SWAP1 PUSH1 0x3 SHL SHR NOT AND OR PUSH1 0x3 DUP6 ADD SSTORE JUMPDEST PUSH1 0x4 DUP5 ADD PUSH1 0x1 DUP1 DUP5 SHL SUB PUSH1 0x80 DUP4 ADD MLOAD AND PUSH12 0xFFFFFFFFFFFFFFFFFFFFFFFF DUP5 SHL DUP3 SLOAD AND OR SWAP1 SSTORE ADD MLOAD SWAP2 ADD SSTORE PUSH2 0x23B2 JUMP JUMPDEST SWAP7 PUSH1 0x40 MLOAD SWAP6 DUP7 SWAP6 PUSH1 0x60 DUP8 MSTORE PUSH1 0x60 DUP8 ADD SWAP1 PUSH2 0x2109 JUMP JUMPDEST SWAP1 DUP6 DUP3 SUB PUSH1 0x20 DUP8 ADD MSTORE PUSH2 0x2109 JUMP JUMPDEST SWAP1 DUP4 DUP3 SUB PUSH1 0x40 DUP6 ADD MSTORE PUSH2 0x2109 JUMP JUMPDEST SUB SWAP1 LOG2 STOP JUMPDEST ADD MLOAD SWAP1 POP DUP16 DUP1 PUSH2 0x6A6 JUMP JUMPDEST SWAP1 PUSH1 0x3 DUP6 ADD PUSH1 0x0 MSTORE PUSH1 0x20 PUSH1 0x0 KECCAK256 SWAP2 PUSH1 0x0 JUMPDEST PUSH1 0x1F NOT DUP6 AND DUP2 LT PUSH2 0x7BC JUMPI POP SWAP5 PUSH1 0x5 PUSH1 0xA0 PUSH2 0x702 SWAP10 SWAP7 PUSH1 0x1 DUP8 PUSH2 0x6ED SWAP8 PUSH32 0x27BAAC6A97EB6E805295EF67484632385567A71CEB8322F0B97CDC74F71DB264 SWAP15 SWAP13 SWAP8 PUSH2 0x71E SWAP13 PUSH2 0x710 SWAP12 PUSH1 0x1F NOT DUP2 AND LT PUSH2 0x7A3 JUMPI JUMPDEST POP POP POP DUP2 SHL ADD PUSH1 0x3 DUP6 ADD SSTORE PUSH2 0x6BE JUMP JUMPDEST ADD MLOAD PUSH1 0x0 NOT PUSH1 0xF8 DUP5 PUSH1 0x3 SHL AND SHR NOT AND SWAP1 SSTORE DUP16 DUP1 DUP1 PUSH2 0x793 JUMP JUMPDEST SWAP2 SWAP3 PUSH1 0x20 PUSH1 0x1 DUP2 SWAP3 DUP7 DUP6 ADD MLOAD DUP2 SSTORE ADD SWAP5 ADD SWAP3 ADD PUSH2 0x73F JUMP JUMPDEST PUSH4 0x4E487B71 PUSH1 0xE0 SHL PUSH1 0x0 MSTORE PUSH1 0x41 PUSH1 0x4 MSTORE PUSH1 0x24 PUSH1 0x0 REVERT JUMPDEST ADD MLOAD SWAP1 POP DUP9 DUP1 PUSH2 0x60E JUMP JUMPDEST SWAP3 POP PUSH1 0x2 DUP6 ADD PUSH1 0x0 MSTORE PUSH1 0x20 PUSH1 0x0 KECCAK256 SWAP1 PUSH1 0x0 SWAP4 JUMPDEST PUSH1 0x1F NOT DUP5 AND DUP6 LT PUSH2 0x84C JUMPI PUSH1 0x1 SWAP5 POP DUP4 PUSH1 0x1F NOT DUP2 AND LT PUSH2 0x833 JUMPI JUMPDEST POP POP POP DUP2 SHL ADD PUSH1 0x2 DUP4 ADD SSTORE PUSH2 0x626 JUMP JUMPDEST ADD MLOAD PUSH1 0x0 NOT PUSH1 0xF8 DUP5 PUSH1 0x3 SHL AND SHR NOT AND SWAP1 SSTORE DUP9 DUP1 DUP1 PUSH2 0x823 JUMP JUMPDEST DUP2 DUP2 ADD MLOAD DUP4 SSTORE PUSH1 0x20 SWAP5 DUP6 ADD SWAP5 PUSH1 0x1 SWAP1 SWAP4 ADD SWAP3 SWAP1 SWAP2 ADD SWAP1 PUSH2 0x808 JUMP JUMPDEST ADD MLOAD SWAP1 POP DUP9 DUP1 PUSH2 0x5AE JUMP JUMPDEST SWAP3 POP PUSH1 0x1 DUP6 ADD PUSH1 0x0 MSTORE PUSH1 0x20 PUSH1 0x0 KECCAK256 SWAP1 PUSH1 0x0 SWAP4 JUMPDEST PUSH1 0x1F NOT DUP5 AND DUP6 LT PUSH2 0x8C9 JUMPI PUSH1 0x1 SWAP5 POP DUP4 PUSH1 0x1F NOT DUP2 AND LT PUSH2 0x8B0 JUMPI JUMPDEST POP POP POP DUP2 SHL ADD PUSH1 0x1 DUP4 ADD SSTORE PUSH2 0x5C6 JUMP JUMPDEST ADD MLOAD PUSH1 0x0 NOT PUSH1 0xF8 DUP5 PUSH1 0x3 SHL AND SHR NOT AND SWAP1 SSTORE DUP9 DUP1 DUP1 PUSH2 0x8A0 JUMP JUMPDEST DUP2 DUP2 ADD MLOAD DUP4 SSTORE PUSH1 0x20 SWAP5 DUP6 ADD SWAP5 PUSH1 0x1 SWAP1 SWAP4 ADD SWAP3 SWAP1 SWAP2 ADD SWAP1 PUSH2 0x885 JUMP JUMPDEST ADD MLOAD SWAP1 POP DUP9 DUP1 PUSH2 0x551 JUMP JUMPDEST SWAP3 POP DUP5 PUSH1 0x0 MSTORE PUSH1 0x20 PUSH1 0x0 KECCAK256 SWAP1 PUSH1 0x0 SWAP4 JUMPDEST PUSH1 0x1F NOT DUP5 AND DUP6 LT PUSH2 0x940 JUMPI PUSH1 0x1 SWAP5 POP DUP4 PUSH1 0x1F NOT DUP2 AND LT PUSH2 0x927 JUMPI JUMPDEST POP POP POP DUP2 SHL ADD DUP3 SSTORE PUSH2 0x566 JUMP JUMPDEST ADD MLOAD PUSH1 0x0 NOT PUSH1 0xF8 DUP5 PUSH1 0x3 SHL AND SHR NOT AND SWAP1 SSTORE DUP9 DUP1 DUP1 PUSH2 0x91A JUMP JUMPDEST DUP2 DUP2 ADD MLOAD DUP4 SSTORE PUSH1 0x20 SWAP5 DUP6 ADD SWAP5 PUSH1 0x1 SWAP1 SWAP4 ADD SWAP3 SWAP1 SWAP2 ADD SWAP1 PUSH2 0x8FF JUMP JUMPDEST PUSH4 0x4E487B71 PUSH1 0xE0 SHL PUSH1 0x0 MSTORE PUSH1 0x0 PUSH1 0x4 MSTORE PUSH1 0x24 PUSH1 0x0 REVERT JUMPDEST PUSH1 0x40 MLOAD PUSH3 0x461BCD PUSH1 0xE5 SHL DUP2 MSTORE PUSH1 0x20 PUSH1 0x4 DUP3 ADD MSTORE PUSH1 0x12 PUSH1 0x24 DUP3 ADD MSTORE PUSH18 0x15195CDD195C881251081C995C5D5A5C9959 PUSH1 0x72 SHL PUSH1 0x44 DUP3 ADD MSTORE PUSH1 0x64 SWAP1 REVERT JUMPDEST PUSH1 0x40 MLOAD PUSH3 0x461BCD PUSH1 0xE5 SHL DUP2 MSTORE PUSH1 0x20 PUSH1 0x4 DUP3 ADD MSTORE PUSH1 0x14 PUSH1 0x24 DUP3 ADD MSTORE PUSH20 0x15195CDD081C995CDD5B1D081C995C5D5A5C9959 PUSH1 0x62 SHL PUSH1 0x44 DUP3 ADD MSTORE PUSH1 0x64 SWAP1 REVERT JUMPDEST PUSH1 0x40 MLOAD PUSH3 0x461BCD PUSH1 0xE5 SHL DUP2 MSTORE PUSH1 0x20 PUSH1 0x4 DUP3 ADD MSTORE PUSH1 0x12 PUSH1 0x24 DUP3 ADD MSTORE PUSH18 0x15195CDD081D1E5C19481C995C5D5A5C9959 PUSH1 0x72 SHL PUSH1 0x44 DUP3 ADD MSTORE PUSH1 0x64 SWAP1 REVERT JUMPDEST CALLVALUE PUSH2 0x3DB JUMPI PUSH2 0xA2F CALLDATASIZE PUSH2 0x2248 JUMP JUMPDEST SWAP1 PUSH1 0x40 MLOAD SWAP1 PUSH2 0xA4E PUSH1 0xFF DUP3 MLOAD SWAP4 PUSH1 0x20 DUP2 DUP2 DUP7 ADD SWAP7 PUSH2 0x168 DUP2 DUP4 DUP11 PUSH2 0x20E6 JUMP JUMPDEST PUSH1 0x3 DUP4 GT PUSH2 0xAC8 JUMPI PUSH1 0x4 DUP4 LT ISZERO PUSH2 0x3C5 JUMPI PUSH2 0xAB7 PUSH1 0x20 SWAP2 PUSH2 0xAB2 DUP6 PUSH1 0x9 PUSH2 0xAA2 DUP7 PUSH32 0x67299131A74FBF9A478B698DD6389D28F2A6C38727EBDAFAEDC6B1AEFF674F11 SWAP9 PUSH1 0x40 MLOAD DUP1 SWAP4 DUP2 SWAP3 DUP10 MLOAD SWAP3 DUP4 SWAP2 PUSH2 0x20E6 JUMP JUMPDEST DUP2 ADD PUSH1 0x1 DUP2 MSTORE SUB ADD SWAP1 KECCAK256 ADD PUSH2 0x2336 JUMP JUMPDEST PUSH2 0x23B2 JUMP JUMPDEST SWAP3 PUSH2 0xAC5 PUSH1 0x40 MLOAD DUP1 SWAP3 PUSH2 0x223B JUMP JUMPDEST LOG2 STOP JUMPDEST PUSH1 0x40 MLOAD PUSH3 0x461BCD PUSH1 0xE5 SHL DUP2 MSTORE PUSH1 0x20 PUSH1 0x4 DUP3 ADD MSTORE PUSH1 0xE PUSH1 0x24 DUP3 ADD MSTORE PUSH14 0x496E76616C696420737461747573 PUSH1 0x90 SHL PUSH1 0x44 DUP3 ADD MSTORE PUSH1 0x64 SWAP1 REVERT JUMPDEST CALLVALUE PUSH2 0x3DB JUMPI PUSH1 0x20 CALLDATASIZE PUSH1 0x3 NOT ADD SLT PUSH2 0x3DB JUMPI PUSH1 0x4 CALLDATALOAD PUSH1 0x1 PUSH1 0x1 PUSH1 0x40 SHL SUB DUP2 GT PUSH2 0x3DB JUMPI PUSH1 0xFF PUSH2 0xB49 PUSH1 0x20 PUSH2 0xB36 DUP2 SWAP5 CALLDATASIZE SWAP1 PUSH1 0x4 ADD PUSH2 0x20C8 JUMP JUMPDEST DUP2 PUSH1 0x40 MLOAD SWAP4 DUP3 DUP6 DUP1 SWAP5 MLOAD SWAP4 DUP5 SWAP3 ADD PUSH2 0x20E6 JUMP JUMPDEST DUP2 ADD PUSH1 0x2 DUP2 MSTORE SUB ADD SWAP1 KECCAK256 SLOAD AND PUSH1 0x40 MLOAD SWAP1 ISZERO ISZERO DUP2 MSTORE RETURN JUMPDEST CALLVALUE PUSH2 0x3DB JUMPI PUSH1 0x0 CALLDATASIZE PUSH1 0x3 NOT ADD SLT PUSH2 0x3DB JUMPI PUSH1 0x4 SLOAD PUSH2 0xB7C DUP2 PUSH2 0x23D2 JUMP JUMPDEST SWAP1 PUSH2 0xB8A PUSH1 0x40 MLOAD SWAP3 DUP4 PUSH2 0x2061 JUMP JUMPDEST DUP1 DUP3 MSTORE PUSH1 0x20 SWAP1 DUP2 DUP4 ADD SWAP1 DUP2 PUSH1 0x4 PUSH1 0x0 MSTORE PUSH32 0x8A35ACFBC15FF81A39AE7D344FD709F28E8600B4AA8C65C6B64BFE7FE36BD19B PUSH1 0x0 SWAP2 JUMPDEST DUP4 DUP4 LT PUSH2 0xC26 JUMPI POP POP POP POP PUSH1 0x40 MLOAD SWAP2 DUP1 DUP4 ADD SWAP4 DUP2 DUP5 MSTORE MLOAD DUP1 SWAP5 MSTORE PUSH1 0x40 DUP4 ADD SWAP4 PUSH1 0x40 DUP2 PUSH1 0x5 SHL DUP6 ADD ADD SWAP3 SWAP2 PUSH1 0x0 SWAP6 JUMPDEST DUP3 DUP8 LT PUSH2 0xBFA JUMPI DUP6 DUP6 SUB DUP7 RETURN JUMPDEST SWAP1 SWAP2 SWAP3 SWAP4 DUP3 DUP1 PUSH2 0xC16 PUSH1 0x1 SWAP4 PUSH1 0x3F NOT DUP11 DUP3 SUB ADD DUP7 MSTORE DUP9 MLOAD PUSH2 0x2109 JUMP JUMPDEST SWAP7 ADD SWAP3 ADD SWAP7 ADD SWAP6 SWAP3 SWAP2 SWAP1 SWAP3 PUSH2 0xBED JUMP JUMPDEST PUSH1 0x1 DUP7 DUP2 SWAP3 PUSH2 0xC37 DUP6 SWAP11 SWAP10 SWAP11 PUSH2 0x2195 JUMP JUMPDEST DUP2 MSTORE ADD SWAP3 ADD SWAP3 ADD SWAP2 SWAP1 SWAP6 SWAP5 SWAP6 PUSH2 0xBBF JUMP JUMPDEST CALLVALUE PUSH2 0x3DB JUMPI PUSH1 0x20 CALLDATASIZE PUSH1 0x3 NOT ADD SLT PUSH2 0x3DB JUMPI PUSH1 0x4 CALLDATALOAD PUSH1 0x4 SLOAD DUP2 LT ISZERO PUSH2 0x3DB JUMPI PUSH2 0xC6F SWAP1 PUSH2 0x22AB JUMP JUMPDEST PUSH2 0x95B JUMPI PUSH2 0xC7F PUSH2 0xC93 SWAP2 PUSH2 0x2195 JUMP JUMPDEST PUSH1 0x40 MLOAD SWAP2 DUP3 SWAP2 PUSH1 0x20 DUP4 MSTORE PUSH1 0x20 DUP4 ADD SWAP1 PUSH2 0x2109 JUMP JUMPDEST SUB SWAP1 RETURN JUMPDEST CALLVALUE PUSH2 0x3DB JUMPI PUSH1 0x0 CALLDATASIZE PUSH1 0x3 NOT ADD SLT PUSH2 0x3DB JUMPI PUSH1 0x20 PUSH1 0x4 SLOAD PUSH1 0x40 MLOAD SWAP1 DUP2 MSTORE RETURN JUMPDEST CALLVALUE PUSH2 0x3DB JUMPI PUSH1 0x20 PUSH2 0xCDD PUSH2 0xCC8 CALLDATASIZE PUSH2 0x2248 JUMP JUMPDEST SWAP3 SWAP1 DUP2 PUSH1 0x40 MLOAD SWAP4 DUP3 DUP6 DUP1 SWAP5 MLOAD SWAP4 DUP5 SWAP3 ADD PUSH2 0x20E6 JUMP JUMPDEST DUP2 ADD PUSH1 0x3 DUP2 MSTORE SUB ADD SWAP1 KECCAK256 DUP1 SLOAD DUP3 LT ISZERO PUSH2 0x3DB JUMPI PUSH2 0xD5D SWAP2 PUSH2 0xCFD SWAP2 PUSH2 0x2279 JUMP JUMPDEST POP PUSH2 0xD07 DUP2 PUSH2 0x2195 JUMP JUMPDEST SWAP1 PUSH2 0xD14 PUSH1 0x1 DUP3 ADD PUSH2 0x2195 JUMP JUMPDEST PUSH2 0xD87 PUSH2 0xD23 PUSH1 0x2 DUP5 ADD PUSH2 0x2195 JUMP JUMPDEST PUSH2 0xD79 PUSH2 0xD32 PUSH1 0x3 DUP7 ADD PUSH2 0x2195 JUMP JUMPDEST SWAP2 PUSH2 0xD6B PUSH1 0x5 PUSH1 0x1 DUP1 PUSH1 0xA0 SHL SUB PUSH1 0x4 DUP10 ADD SLOAD AND SWAP8 ADD SLOAD SWAP6 PUSH1 0x40 MLOAD SWAP10 DUP11 SWAP10 PUSH1 0xC0 DUP12 MSTORE PUSH1 0xC0 DUP12 ADD SWAP1 PUSH2 0x2109 JUMP JUMPDEST SWAP1 DUP10 DUP3 SUB PUSH1 0x20 DUP12 ADD MSTORE PUSH2 0x2109 JUMP JUMPDEST SWAP1 DUP8 DUP3 SUB PUSH1 0x40 DUP10 ADD MSTORE PUSH2 0x2109 JUMP JUMPDEST SWAP1 DUP6 DUP3 SUB PUSH1 0x60 DUP8 ADD MSTORE PUSH2 0x2109 JUMP JUMPDEST SWAP2 PUSH1 0x80 DUP5 ADD MSTORE PUSH1 0xA0 DUP4 ADD MSTORE SUB SWAP1 RETURN JUMPDEST CALLVALUE PUSH2 0x3DB JUMPI PUSH1 0x0 CALLDATASIZE PUSH1 0x3 NOT ADD SLT PUSH2 0x3DB JUMPI PUSH1 0x0 SLOAD PUSH1 0x40 MLOAD PUSH1 0x1 PUSH1 0x1 PUSH1 0xA0 SHL SUB SWAP1 SWAP2 AND DUP2 MSTORE PUSH1 0x20 SWAP1 RETURN JUMPDEST CALLVALUE PUSH2 0x3DB JUMPI PUSH1 0x20 CALLDATASIZE PUSH1 0x3 NOT ADD SLT PUSH2 0x3DB JUMPI PUSH1 0x4 CALLDATALOAD PUSH1 0x1 PUSH1 0x1 PUSH1 0x40 SHL SUB DUP2 GT PUSH2 0x3DB JUMPI PUSH2 0xDEF SWAP1 CALLDATASIZE SWAP1 PUSH1 0x4 ADD PUSH2 0x20C8 JUMP JUMPDEST PUSH1 0x40 MLOAD DUP2 DUP2 DUP1 SWAP4 MLOAD PUSH1 0x20 DUP2 SWAP4 ADD SWAP2 PUSH2 0xE06 SWAP3 PUSH2 0x20E6 JUMP JUMPDEST DUP2 ADD PUSH1 0x1 DUP2 MSTORE SUB PUSH1 0x20 ADD SWAP1 KECCAK256 PUSH2 0xE1B DUP2 PUSH2 0x2195 JUMP JUMPDEST PUSH2 0xE27 PUSH1 0x1 DUP4 ADD PUSH2 0x2195 JUMP JUMPDEST SWAP2 PUSH2 0xE34 PUSH1 0x2 DUP3 ADD PUSH2 0x2195 JUMP JUMPDEST PUSH2 0xE40 PUSH1 0x3 DUP4 ADD PUSH2 0x2195 JUMP JUMPDEST PUSH2 0xE4C PUSH1 0x4 DUP5 ADD PUSH2 0x2195 JUMP JUMPDEST PUSH1 0x5 DUP5 ADD SLOAD PUSH2 0xE5D PUSH1 0x6 DUP7 ADD PUSH2 0x2195 JUMP JUMPDEST PUSH2 0xE69 PUSH1 0x7 DUP8 ADD PUSH2 0x2195 JUMP JUMPDEST SWAP1 PUSH2 0xE76 PUSH1 0x8 DUP9 ADD PUSH2 0x2195 JUMP JUMPDEST SWAP3 PUSH1 0x9 DUP9 ADD SLOAD SWAP5 PUSH1 0xA DUP10 ADD PUSH2 0xE8A SWAP1 PUSH2 0x2195 JUMP JUMPDEST SWAP7 PUSH1 0x1 PUSH1 0xA0 SHL PUSH1 0x1 SWAP1 SUB PUSH1 0xB DUP12 ADD SLOAD AND SWAP10 PUSH1 0xC ADD SLOAD SWAP9 PUSH1 0x40 MLOAD SWAP13 DUP14 SWAP13 DUP14 PUSH2 0x1C0 SWAP1 DUP2 DUP2 MSTORE ADD PUSH2 0xEB8 SWAP2 PUSH2 0x2109 JUMP JUMPDEST DUP14 DUP2 SUB PUSH1 0x20 DUP16 ADD MSTORE PUSH2 0xEC9 SWAP2 PUSH2 0x2109 JUMP JUMPDEST DUP13 DUP2 SUB PUSH1 0x40 DUP15 ADD MSTORE PUSH2 0xEDA SWAP2 PUSH2 0x2109 JUMP JUMPDEST DUP12 DUP2 SUB PUSH1 0x60 DUP14 ADD MSTORE PUSH2 0xEEB SWAP2 PUSH2 0x2109 JUMP JUMPDEST DUP11 DUP2 SUB PUSH1 0x80 DUP13 ADD MSTORE PUSH2 0xEFC SWAP2 PUSH2 0x2109 JUMP JUMPDEST SWAP1 PUSH1 0xA0 DUP11 ADD MSTORE DUP9 DUP2 SUB PUSH1 0xC0 DUP11 ADD MSTORE PUSH2 0xF13 SWAP2 PUSH2 0x2109 JUMP JUMPDEST DUP8 DUP2 SUB PUSH1 0xE0 DUP10 ADD MSTORE PUSH2 0xF24 SWAP2 PUSH2 0x2109 JUMP JUMPDEST DUP7 DUP2 SUB PUSH2 0x100 DUP9 ADD MSTORE PUSH2 0xF36 SWAP2 PUSH2 0x2109 JUMP JUMPDEST SWAP1 PUSH2 0xF48 PUSH2 0x120 DUP8 ADD PUSH1 0xFF DUP4 AND PUSH2 0x223B JUMP JUMPDEST PUSH1 0x8 SHR PUSH1 0xFF AND ISZERO ISZERO PUSH2 0x140 DUP7 ADD MSTORE DUP5 DUP2 SUB PUSH2 0x160 DUP7 ADD MSTORE PUSH2 0xF68 SWAP2 PUSH2 0x2109 JUMP JUMPDEST SWAP2 PUSH2 0x180 DUP5 ADD MSTORE PUSH2 0x1A0 DUP4 ADD MSTORE SUB SWAP1 RETURN JUMPDEST CALLVALUE PUSH2 0x3DB JUMPI PUSH2 0x160 CALLDATASIZE PUSH1 0x3 NOT ADD SLT PUSH2 0x3DB JUMPI PUSH1 0x4 CALLDATALOAD PUSH1 0x1 PUSH1 0x1 PUSH1 0x40 SHL SUB DUP2 GT PUSH2 0x3DB JUMPI PUSH2 0xFAA SWAP1 CALLDATASIZE SWAP1 PUSH1 0x4 ADD PUSH2 0x212E JUMP JUMPDEST SWAP1 DUP2 PUSH2 0x200 MSTORE DUP1 PUSH1 0x80 MSTORE PUSH1 0x24 CALLDATALOAD PUSH1 0x1 PUSH1 0x1 PUSH1 0x40 SHL SUB DUP2 GT PUSH2 0x3DB JUMPI PUSH2 0xFD3 SWAP1 CALLDATASIZE SWAP1 PUSH1 0x4 ADD PUSH2 0x212E JUMP JUMPDEST PUSH1 0xA0 MSTORE PUSH2 0x160 MSTORE PUSH1 0x44 CALLDATALOAD PUSH1 0x1 PUSH1 0x1 PUSH1 0x40 SHL SUB DUP2 GT PUSH2 0x3DB JUMPI PUSH2 0xFF9 SWAP1 CALLDATASIZE SWAP1 PUSH1 0x4 ADD PUSH2 0x212E JUMP JUMPDEST PUSH1 0xE0 MSTORE PUSH2 0x100 MSTORE PUSH1 0x64 CALLDATALOAD PUSH1 0x1 PUSH1 0x1 PUSH1 0x40 SHL SUB DUP2 GT PUSH2 0x3DB JUMPI PUSH2 0x101F SWAP1 CALLDATASIZE SWAP1 PUSH1 0x4 ADD PUSH2 0x212E JUMP JUMPDEST PUSH2 0x1C0 MSTORE PUSH2 0x180 MSTORE PUSH1 0x84 CALLDATALOAD PUSH1 0x1 PUSH1 0x1 PUSH1 0x40 SHL SUB DUP2 GT PUSH2 0x3DB JUMPI PUSH2 0x1046 SWAP1 CALLDATASIZE SWAP1 PUSH1 0x4 ADD PUSH2 0x212E JUMP JUMPDEST PUSH2 0x120 MSTORE PUSH2 0x1E0 MSTORE PUSH1 0xC4 CALLDATALOAD PUSH1 0x1 PUSH1 0x1 PUSH1 0x40 SHL SUB DUP2 GT PUSH2 0x3DB JUMPI PUSH2 0x106D SWAP1 CALLDATASIZE SWAP1 PUSH1 0x4 ADD PUSH2 0x212E JUMP JUMPDEST SWAP3 SWAP1 PUSH1 0xE4 CALLDATALOAD PUSH1 0x1 PUSH1 0x1 PUSH1 0x40 SHL SUB DUP2 GT PUSH2 0x3DB JUMPI PUSH2 0x108E SWAP1 CALLDATASIZE SWAP1 PUSH1 0x4 ADD PUSH2 0x212E JUMP JUMPDEST PUSH2 0x104 CALLDATALOAD PUSH1 0x1 PUSH1 0x1 PUSH1 0x40 SHL SUB DUP2 GT PUSH2 0x3DB JUMPI PUSH2 0x10AE SWAP1 CALLDATASIZE SWAP1 PUSH1 0x4 ADD PUSH2 0x212E JUMP JUMPDEST SWAP5 SWAP1 SWAP6 PUSH2 0x124 CALLDATALOAD DUP1 PUSH2 0x140 MSTORE DUP1 ISZERO ISZERO SUB PUSH2 0x3DB JUMPI PUSH2 0x144 CALLDATALOAD SWAP2 PUSH1 0x1 PUSH1 0x1 PUSH1 0x40 SHL SUB DUP4 GT PUSH2 0x3DB JUMPI PUSH2 0x10E5 PUSH1 0xFF SWAP4 CALLDATASIZE SWAP1 PUSH1 0x4 ADD PUSH2 0x212E JUMP JUMPDEST PUSH2 0x1A0 MSTORE PUSH1 0xC0 MSTORE PUSH1 0x40 MLOAD SWAP2 DUP3 CALLDATACOPY PUSH1 0x2 PUSH2 0x200 MLOAD DUP3 ADD MSTORE PUSH1 0x20 DUP2 PUSH2 0x200 MLOAD DUP2 ADD SUB ADD SWAP1 KECCAK256 SLOAD AND PUSH2 0x1D23 JUMPI PUSH2 0x200 MLOAD ISZERO PUSH2 0x1CEA JUMPI PUSH1 0xA0 MLOAD ISZERO PUSH2 0x1CAD JUMPI PUSH1 0xA4 CALLDATALOAD ISZERO PUSH2 0x1C68 JUMPI PUSH2 0x11CB PUSH2 0x11DA SWAP4 PUSH2 0x11E9 SWAP8 PUSH2 0x1142 PUSH1 0x40 MLOAD DUP1 PUSH2 0x220 MSTORE PUSH2 0x2045 JUMP JUMPDEST PUSH2 0x1152 CALLDATASIZE PUSH2 0x200 MLOAD PUSH1 0x80 MLOAD PUSH2 0x2082 JUMP JUMPDEST PUSH2 0x220 MLOAD MSTORE PUSH2 0x1167 CALLDATASIZE PUSH1 0xA0 MLOAD PUSH2 0x160 MLOAD PUSH2 0x2082 JUMP JUMPDEST PUSH1 0x20 PUSH2 0x220 MLOAD ADD MSTORE PUSH2 0x117F CALLDATASIZE PUSH1 0xE0 MLOAD PUSH2 0x100 MLOAD PUSH2 0x2082 JUMP JUMPDEST PUSH1 0x40 PUSH2 0x220 MLOAD ADD MSTORE PUSH2 0x1198 CALLDATASIZE PUSH2 0x1C0 MLOAD PUSH2 0x180 MLOAD PUSH2 0x2082 JUMP JUMPDEST PUSH1 0x60 PUSH2 0x220 MLOAD ADD MSTORE PUSH2 0x11B1 CALLDATASIZE PUSH2 0x120 MLOAD PUSH2 0x1E0 MLOAD PUSH2 0x2082 JUMP JUMPDEST PUSH1 0x80 PUSH2 0x220 MLOAD ADD MSTORE PUSH1 0xA4 CALLDATALOAD PUSH1 0xA0 PUSH2 0x220 MLOAD ADD MSTORE CALLDATASIZE SWAP2 PUSH2 0x2082 JUMP JUMPDEST PUSH1 0xC0 PUSH2 0x220 MLOAD ADD MSTORE CALLDATASIZE SWAP2 PUSH2 0x2082 JUMP JUMPDEST PUSH1 0xE0 PUSH2 0x220 MLOAD ADD MSTORE CALLDATASIZE SWAP2 PUSH2 0x2082 JUMP JUMPDEST PUSH2 0x100 PUSH2 0x220 MLOAD ADD MSTORE PUSH1 0x0 PUSH2 0x120 PUSH2 0x220 MLOAD ADD MSTORE PUSH2 0x140 MLOAD ISZERO ISZERO PUSH2 0x140 PUSH2 0x220 MLOAD ADD MSTORE PUSH2 0x121C CALLDATASIZE PUSH2 0x1A0 MLOAD PUSH1 0xC0 MLOAD PUSH2 0x2082 JUMP JUMPDEST PUSH2 0x160 PUSH2 0x220 MLOAD ADD MSTORE CALLER PUSH2 0x180 PUSH2 0x220 MLOAD ADD MSTORE TIMESTAMP PUSH2 0x1A0 PUSH2 0x220 MLOAD ADD MSTORE PUSH1 0x40 MLOAD PUSH2 0x200 MLOAD PUSH1 0x80 MLOAD DUP3 CALLDATACOPY PUSH1 0x1 PUSH2 0x200 MLOAD DUP3 ADD MSTORE PUSH1 0x20 DUP2 PUSH2 0x200 MLOAD DUP2 ADD SUB ADD SWAP1 KECCAK256 PUSH2 0x220 MLOAD MLOAD DUP1 MLOAD SWAP1 PUSH1 0x1 PUSH1 0x1 PUSH1 0x40 SHL SUB DUP3 GT PUSH2 0x7D4 JUMPI DUP2 SWAP1 PUSH2 0x1287 DUP3 PUSH2 0x1281 DUP7 SLOAD PUSH2 0x215B JUMP JUMPDEST DUP7 PUSH2 0x22E2 JUMP JUMPDEST PUSH1 0x20 SWAP1 PUSH1 0x1F DUP4 GT PUSH1 0x1 EQ PUSH2 0x1BFC JUMPI PUSH1 0x0 SWAP3 PUSH2 0x1BF1 JUMPI JUMPDEST POP POP DUP2 PUSH1 0x1 SHL SWAP2 PUSH1 0x0 NOT SWAP1 PUSH1 0x3 SHL SHR NOT AND OR DUP2 SSTORE JUMPDEST PUSH1 0x20 PUSH2 0x220 MLOAD ADD MLOAD DUP1 MLOAD SWAP1 PUSH1 0x1 PUSH1 0x1 PUSH1 0x40 SHL SUB DUP3 GT PUSH2 0x7D4 JUMPI DUP2 SWAP1 PUSH2 0x12E7 DUP3 PUSH2 0x12DE PUSH1 0x1 DUP8 ADD SLOAD PUSH2 0x215B JUMP JUMPDEST PUSH1 0x1 DUP8 ADD PUSH2 0x22E2 JUMP JUMPDEST PUSH1 0x20 SWAP1 PUSH1 0x1F DUP4 GT PUSH1 0x1 EQ PUSH2 0x1B7F JUMPI PUSH1 0x0 SWAP3 PUSH2 0x1B74 JUMPI JUMPDEST POP POP DUP2 PUSH1 0x1 SHL SWAP2 PUSH1 0x0 NOT SWAP1 PUSH1 0x3 SHL SHR NOT AND OR PUSH1 0x1 DUP3 ADD SSTORE JUMPDEST PUSH1 0x40 PUSH2 0x220 MLOAD ADD MLOAD DUP1 MLOAD SWAP1 PUSH1 0x1 PUSH1 0x1 PUSH1 0x40 SHL SUB DUP3 GT PUSH2 0x7D4 JUMPI DUP2 SWAP1 PUSH2 0x134A DUP3 PUSH2 0x1341 PUSH1 0x2 DUP8 ADD SLOAD PUSH2 0x215B JUMP JUMPDEST PUSH1 0x2 DUP8 ADD PUSH2 0x22E2 JUMP JUMPDEST PUSH1 0x20 SWAP1 PUSH1 0x1F DUP4 GT PUSH1 0x1 EQ PUSH2 0x1B02 JUMPI PUSH1 0x0 SWAP3 PUSH2 0x1AF7 JUMPI JUMPDEST POP POP DUP2 PUSH1 0x1 SHL SWAP2 PUSH1 0x0 NOT SWAP1 PUSH1 0x3 SHL SHR NOT AND OR PUSH1 0x2 DUP3 ADD SSTORE JUMPDEST PUSH1 0x60 PUSH2 0x220 MLOAD ADD MLOAD DUP1 MLOAD SWAP1 PUSH1 0x1 PUSH1 0x1 PUSH1 0x40 SHL SUB DUP3 GT PUSH2 0x7D4 JUMPI DUP2 SWAP1 PUSH2 0x13A4 DUP3 PUSH2 0x64D PUSH1 0x3 DUP8 ADD SLOAD PUSH2 0x215B JUMP JUMPDEST PUSH1 0x20 SWAP1 PUSH1 0x1F DUP4 GT PUSH1 0x1 EQ PUSH2 0x1A85 JUMPI PUSH1 0x0 SWAP3 PUSH2 0x1A7A JUMPI JUMPDEST POP POP DUP2 PUSH1 0x1 SHL SWAP2 PUSH1 0x0 NOT SWAP1 PUSH1 0x3 SHL SHR NOT AND OR PUSH1 0x3 DUP3 ADD SSTORE JUMPDEST PUSH1 0x80 PUSH2 0x220 MLOAD ADD MLOAD DUP1 MLOAD SWAP1 PUSH1 0x1 PUSH1 0x1 PUSH1 0x40 SHL SUB DUP3 GT PUSH2 0x7D4 JUMPI DUP2 SWAP1 PUSH2 0x1407 DUP3 PUSH2 0x13FE PUSH1 0x4 DUP8 ADD SLOAD PUSH2 0x215B JUMP JUMPDEST PUSH1 0x4 DUP8 ADD PUSH2 0x22E2 JUMP JUMPDEST PUSH1 0x20 SWAP1 PUSH1 0x1F DUP4 GT PUSH1 0x1 EQ PUSH2 0x1A08 JUMPI PUSH1 0x0 SWAP3 PUSH2 0x19FD JUMPI JUMPDEST POP POP DUP2 PUSH1 0x1 SHL SWAP2 PUSH1 0x0 NOT SWAP1 PUSH1 0x3 SHL SHR NOT AND OR PUSH1 0x4 DUP3 ADD SSTORE JUMPDEST PUSH1 0xC0 PUSH2 0x220 MLOAD PUSH1 0xA0 DUP2 ADD MLOAD PUSH1 0x5 DUP5 ADD SSTORE ADD MLOAD DUP1 MLOAD SWAP1 PUSH1 0x1 PUSH1 0x1 PUSH1 0x40 SHL SUB DUP3 GT PUSH2 0x7D4 JUMPI DUP2 SWAP1 PUSH2 0x1474 DUP3 PUSH2 0x146B PUSH1 0x6 DUP8 ADD SLOAD PUSH2 0x215B JUMP JUMPDEST PUSH1 0x6 DUP8 ADD PUSH2 0x22E2 JUMP JUMPDEST PUSH1 0x20 SWAP1 PUSH1 0x1F DUP4 GT PUSH1 0x1 EQ PUSH2 0x198B JUMPI PUSH1 0x0 SWAP3 PUSH2 0x1980 JUMPI JUMPDEST POP POP DUP2 PUSH1 0x1 SHL SWAP2 PUSH1 0x0 NOT SWAP1 PUSH1 0x3 SHL SHR NOT AND OR PUSH1 0x6 DUP3 ADD SSTORE JUMPDEST PUSH1 0xE0 PUSH2 0x220 MLOAD ADD MLOAD DUP1 MLOAD SWAP1 PUSH1 0x1 PUSH1 0x1 PUSH1 0x40 SHL SUB DUP3 GT PUSH2 0x7D4 JUMPI DUP2 SWAP1 PUSH2 0x14D7 DUP3 PUSH2 0x14CE PUSH1 0x7 DUP8 ADD SLOAD PUSH2 0x215B JUMP JUMPDEST PUSH1 0x7 DUP8 ADD PUSH2 0x22E2 JUMP JUMPDEST PUSH1 0x20 SWAP1 PUSH1 0x1F DUP4 GT PUSH1 0x1 EQ PUSH2 0x190E JUMPI PUSH1 0x0 SWAP3 PUSH2 0x1903 JUMPI JUMPDEST POP POP DUP2 PUSH1 0x1 SHL SWAP2 PUSH1 0x0 NOT SWAP1 PUSH1 0x3 SHL SHR NOT AND OR PUSH1 0x7 DUP3 ADD SSTORE JUMPDEST PUSH2 0x100 PUSH2 0x220 MLOAD ADD MLOAD DUP1 MLOAD SWAP1 PUSH1 0x1 PUSH1 0x1 PUSH1 0x40 SHL SUB DUP3 GT PUSH2 0x7D4 JUMPI DUP2 SWAP1 PUSH2 0x153B DUP3 PUSH2 0x1532 PUSH1 0x8 DUP8 ADD SLOAD PUSH2 0x215B JUMP JUMPDEST PUSH1 0x8 DUP8 ADD PUSH2 0x22E2 JUMP JUMPDEST PUSH1 0x20 SWAP1 PUSH1 0x1F DUP4 GT PUSH1 0x1 EQ PUSH2 0x1891 JUMPI PUSH1 0x0 SWAP3 PUSH2 0x1886 JUMPI JUMPDEST POP POP DUP2 PUSH1 0x1 SHL SWAP2 PUSH1 0x0 NOT SWAP1 PUSH1 0x3 SHL SHR NOT AND OR PUSH1 0x8 DUP3 ADD SSTORE JUMPDEST PUSH2 0x120 PUSH2 0x220 MLOAD ADD MLOAD PUSH1 0x4 DUP2 LT ISZERO PUSH2 0x3C5 JUMPI PUSH2 0x1588 SWAP1 PUSH1 0x9 DUP4 ADD PUSH2 0x2336 JUMP JUMPDEST PUSH2 0x160 PUSH2 0x220 MLOAD PUSH2 0x140 DUP2 ADD MLOAD ISZERO ISZERO PUSH2 0xFF00 PUSH1 0x9 DUP6 ADD SLOAD SWAP2 PUSH1 0x8 SHL AND SWAP1 PUSH2 0xFF00 NOT AND OR PUSH1 0x9 DUP5 ADD SSTORE ADD MLOAD DUP1 MLOAD SWAP1 PUSH1 0x1 PUSH1 0x1 PUSH1 0x40 SHL SUB DUP3 GT PUSH2 0x7D4 JUMPI DUP2 SWAP1 PUSH2 0x15DF DUP3 PUSH2 0x15D6 PUSH1 0xA DUP8 ADD SLOAD PUSH2 0x215B JUMP JUMPDEST PUSH1 0xA DUP8 ADD PUSH2 0x22E2 JUMP JUMPDEST PUSH1 0x20 SWAP1 PUSH1 0x1F DUP4 GT PUSH1 0x1 EQ PUSH2 0x1814 JUMPI PUSH1 0x0 SWAP3 PUSH2 0x1809 JUMPI JUMPDEST POP POP DUP2 PUSH1 0x1 SHL SWAP2 PUSH1 0x0 NOT SWAP1 PUSH1 0x3 SHL SHR NOT AND OR PUSH1 0xA DUP3 ADD SSTORE JUMPDEST PUSH1 0xC PUSH2 0x1A0 PUSH1 0xB DUP4 ADD PUSH2 0x220 MLOAD SWAP1 PUSH1 0x1 DUP1 PUSH1 0xA0 SHL SUB PUSH2 0x180 DUP4 ADD MLOAD AND PUSH12 0xFFFFFFFFFFFFFFFFFFFFFFFF PUSH1 0xA0 SHL DUP3 SLOAD AND OR SWAP1 SSTORE ADD MLOAD SWAP2 ADD SSTORE PUSH1 0x40 MLOAD PUSH2 0x200 MLOAD PUSH1 0x80 MLOAD DUP3 CALLDATACOPY PUSH1 0x20 DUP2 PUSH2 0x200 MLOAD DUP2 ADD PUSH1 0x2 DUP2 MSTORE SUB ADD SWAP1 KECCAK256 PUSH1 0x1 PUSH1 0xFF NOT DUP3 SLOAD AND OR SWAP1 SSTORE PUSH1 0x4 SLOAD PUSH1 0x1 PUSH1 0x40 SHL DUP2 LT ISZERO PUSH2 0x7D4 JUMPI DUP1 PUSH1 0x1 PUSH2 0x168B SWAP3 ADD PUSH1 0x4 SSTORE PUSH2 0x22AB JUMP JUMPDEST PUSH2 0x95B JUMPI PUSH2 0x200 MLOAD PUSH1 0x1 PUSH1 0x1 PUSH1 0x40 SHL SUB DUP2 GT PUSH2 0x7D4 JUMPI PUSH2 0x16B5 SWAP1 PUSH2 0x16AF DUP4 SLOAD PUSH2 0x215B JUMP JUMPDEST DUP4 PUSH2 0x22E2 JUMP JUMPDEST PUSH1 0x0 SWAP1 PUSH2 0x200 MLOAD PUSH1 0x1F DUP2 GT PUSH1 0x1 EQ PUSH2 0x179D JUMPI POP SWAP1 PUSH1 0x0 PUSH2 0x200 MLOAD SWAP2 DUP3 PUSH2 0x1790 JUMPI JUMPDEST POP DUP2 PUSH1 0x1 SHL SWAP2 PUSH1 0x0 NOT SWAP1 PUSH1 0x3 SHL SHR NOT AND OR SWAP1 SSTORE JUMPDEST PUSH1 0x40 MLOAD PUSH2 0x200 MLOAD PUSH1 0x80 MLOAD DUP3 CALLDATACOPY DUP1 PUSH2 0x200 MLOAD DUP2 ADD PUSH1 0x0 DUP2 MSTORE SUB SWAP1 KECCAK256 PUSH1 0x40 MLOAD SWAP1 PUSH1 0x80 DUP3 MSTORE PUSH32 0x3FFD5CC5FC3EC61DBA843357D1211064D432AD494CAD457111DACD91EAA9AEE2 PUSH2 0x176F PUSH2 0x175A PUSH2 0x1746 PUSH1 0x80 DUP7 ADD PUSH1 0xA0 MLOAD PUSH2 0x160 MLOAD PUSH2 0x234E JUMP JUMPDEST DUP6 DUP2 SUB PUSH1 0x20 DUP8 ADD MSTORE PUSH1 0xE0 MLOAD PUSH2 0x100 MLOAD PUSH2 0x234E JUMP JUMPDEST DUP5 DUP2 SUB PUSH1 0x40 DUP7 ADD MSTORE PUSH2 0x1C0 MLOAD PUSH2 0x180 MLOAD PUSH2 0x234E JUMP JUMPDEST SWAP3 DUP1 DUP5 SUB PUSH1 0x60 DUP3 ADD MSTORE DUP1 PUSH2 0x178B CALLER SWAP6 PUSH2 0x120 MLOAD PUSH2 0x1E0 MLOAD PUSH2 0x234E JUMP JUMPDEST SUB SWAP1 LOG3 STOP JUMPDEST SWAP1 POP PUSH1 0x80 MLOAD ADD CALLDATALOAD DUP4 PUSH2 0x16D6 JUMP JUMPDEST DUP2 PUSH1 0x0 MSTORE PUSH1 0x20 PUSH1 0x0 KECCAK256 PUSH1 0x0 SWAP4 PUSH1 0x80 MLOAD SWAP1 JUMPDEST PUSH1 0x1F NOT DUP5 AND DUP7 LT PUSH2 0x17F1 JUMPI PUSH1 0x1 SWAP5 SWAP6 POP DUP4 PUSH1 0x1F NOT DUP2 AND LT PUSH2 0x17D7 JUMPI JUMPDEST POP POP POP DUP2 SHL ADD SWAP1 SSTORE PUSH2 0x16EA JUMP JUMPDEST ADD CALLDATALOAD PUSH1 0x0 NOT PUSH1 0x3 DUP5 SWAP1 SHL PUSH1 0xF8 AND SHR NOT AND SWAP1 SSTORE DUP4 DUP1 DUP1 PUSH2 0x17CA JUMP JUMPDEST SWAP2 PUSH1 0x20 PUSH1 0x1 DUP2 SWAP3 DUP6 DUP6 ADD CALLDATALOAD DUP2 SSTORE ADD SWAP4 ADD SWAP6 ADD SWAP5 PUSH2 0x17AE JUMP JUMPDEST ADD MLOAD SWAP1 POP DUP4 DUP1 PUSH2 0x15F5 JUMP JUMPDEST SWAP3 POP PUSH1 0xA DUP5 ADD PUSH1 0x0 MSTORE PUSH1 0x20 PUSH1 0x0 KECCAK256 SWAP1 PUSH1 0x0 SWAP4 JUMPDEST PUSH1 0x1F NOT DUP5 AND DUP6 LT PUSH2 0x186B JUMPI PUSH1 0x1 SWAP5 POP DUP4 PUSH1 0x1F NOT DUP2 AND LT PUSH2 0x1852 JUMPI JUMPDEST POP POP POP DUP2 SHL ADD PUSH1 0xA DUP3 ADD SSTORE PUSH2 0x160D JUMP JUMPDEST ADD MLOAD PUSH1 0x0 NOT PUSH1 0xF8 DUP5 PUSH1 0x3 SHL AND SHR NOT AND SWAP1 SSTORE DUP4 DUP1 DUP1 PUSH2 0x1842 JUMP JUMPDEST DUP2 DUP2 ADD MLOAD DUP4 SSTORE PUSH1 0x20 SWAP5 DUP6 ADD SWAP5 PUSH1 0x1 SWAP1 SWAP4 ADD SWAP3 SWAP1 SWAP2 ADD SWAP1 PUSH2 0x1827 JUMP JUMPDEST ADD MLOAD SWAP1 POP DUP4 DUP1 PUSH2 0x1551 JUMP JUMPDEST SWAP3 POP PUSH1 0x8 DUP5 ADD PUSH1 0x0 MSTORE PUSH1 0x20 PUSH1 0x0 KECCAK256 SWAP1 PUSH1 0x0 SWAP4 JUMPDEST PUSH1 0x1F NOT DUP5 AND DUP6 LT PUSH2 0x18E8 JUMPI PUSH1 0x1 SWAP5 POP DUP4 PUSH1 0x1F NOT DUP2 AND LT PUSH2 0x18CF JUMPI JUMPDEST POP POP POP DUP2 SHL ADD PUSH1 0x8 DUP3 ADD SSTORE PUSH2 0x1569 JUMP JUMPDEST ADD MLOAD PUSH1 0x0 NOT PUSH1 0xF8 DUP5 PUSH1 0x3 SHL AND SHR NOT AND SWAP1 SSTORE DUP4 DUP1 DUP1 PUSH2 0x18BF JUMP JUMPDEST DUP2 DUP2 ADD MLOAD DUP4 SSTORE PUSH1 0x20 SWAP5 DUP6 ADD SWAP5 PUSH1 0x1 SWAP1 SWAP4 ADD SWAP3 SWAP1 SWAP2 ADD SWAP1 PUSH2 0x18A4 JUMP JUMPDEST ADD MLOAD SWAP1 POP DUP4 DUP1 PUSH2 0x14ED JUMP JUMPDEST SWAP3 POP PUSH1 0x7 DUP5 ADD PUSH1 0x0 MSTORE PUSH1 0x20 PUSH1 0x0 KECCAK256 SWAP1 PUSH1 0x0 SWAP4 JUMPDEST PUSH1 0x1F NOT DUP5 AND DUP6 LT PUSH2 0x1965 JUMPI PUSH1 0x1 SWAP5 POP DUP4 PUSH1 0x1F NOT DUP2 AND LT PUSH2 0x194C JUMPI JUMPDEST POP POP POP DUP2 SHL ADD PUSH1 0x7 DUP3 ADD SSTORE PUSH2 0x1505 JUMP JUMPDEST ADD MLOAD PUSH1 0x0 NOT PUSH1 0xF8 DUP5 PUSH1 0x3 SHL AND SHR NOT AND SWAP1 SSTORE DUP4 DUP1 DUP1 PUSH2 0x193C JUMP JUMPDEST DUP2 DUP2 ADD MLOAD DUP4 SSTORE PUSH1 0x20 SWAP5 DUP6 ADD SWAP5 PUSH1 0x1 SWAP1 SWAP4 ADD SWAP3 SWAP1 SWAP2 ADD SWAP1 PUSH2 0x1921 JUMP JUMPDEST ADD MLOAD SWAP1 POP DUP4 DUP1 PUSH2 0x148A JUMP JUMPDEST SWAP3 POP PUSH1 0x6 DUP5 ADD PUSH1 0x0 MSTORE PUSH1 0x20 PUSH1 0x0 KECCAK256 SWAP1 PUSH1 0x0 SWAP4 JUMPDEST PUSH1 0x1F NOT DUP5 AND DUP6 LT PUSH2 0x19E2 JUMPI PUSH1 0x1 SWAP5 POP DUP4 PUSH1 0x1F NOT DUP2 AND LT PUSH2 0x19C9 JUMPI JUMPDEST POP POP POP DUP2 SHL ADD PUSH1 0x6 DUP3 ADD SSTORE PUSH2 0x14A2 JUMP JUMPDEST ADD MLOAD PUSH1 0x0 NOT PUSH1 0xF8 DUP5 PUSH1 0x3 SHL AND SHR NOT AND SWAP1 SSTORE DUP4 DUP1 DUP1 PUSH2 0x19B9 JUMP JUMPDEST DUP2 DUP2 ADD MLOAD DUP4 SSTORE PUSH1 0x20 SWAP5 DUP6 ADD SWAP5 PUSH1 0x1 SWAP1 SWAP4 ADD SWAP3 SWAP1 SWAP2 ADD SWAP1 PUSH2 0x199E JUMP JUMPDEST ADD MLOAD SWAP1 POP DUP4 DUP1 PUSH2 0x141D JUMP JUMPDEST SWAP3 POP PUSH1 0x4 DUP5 ADD PUSH1 0x0 MSTORE PUSH1 0x20 PUSH1 0x0 KECCAK256 SWAP1 PUSH1 0x0 SWAP4 JUMPDEST PUSH1 0x1F NOT DUP5 AND DUP6 LT PUSH2 0x1A5F JUMPI PUSH1 0x1 SWAP5 POP DUP4 PUSH1 0x1F NOT DUP2 AND LT PUSH2 0x1A46 JUMPI JUMPDEST POP POP POP DUP2 SHL ADD PUSH1 0x4 DUP3 ADD SSTORE PUSH2 0x1435 JUMP JUMPDEST ADD MLOAD PUSH1 0x0 NOT PUSH1 0xF8 DUP5 PUSH1 0x3 SHL AND SHR NOT AND SWAP1 SSTORE DUP4 DUP1 DUP1 PUSH2 0x1A36 JUMP JUMPDEST DUP2 DUP2 ADD MLOAD DUP4 SSTORE PUSH1 0x20 SWAP5 DUP6 ADD SWAP5 PUSH1 0x1 SWAP1 SWAP4 ADD SWAP3 SWAP1 SWAP2 ADD SWAP1 PUSH2 0x1A1B JUMP JUMPDEST ADD MLOAD SWAP1 POP DUP4 DUP1 PUSH2 0x13BA JUMP JUMPDEST SWAP3 POP PUSH1 0x3 DUP5 ADD PUSH1 0x0 MSTORE PUSH1 0x20 PUSH1 0x0 KECCAK256 SWAP1 PUSH1 0x0 SWAP4 JUMPDEST PUSH1 0x1F NOT DUP5 AND DUP6 LT PUSH2 0x1ADC JUMPI PUSH1 0x1 SWAP5 POP DUP4 PUSH1 0x1F NOT DUP2 AND LT PUSH2 0x1AC3 JUMPI JUMPDEST POP POP POP DUP2 SHL ADD PUSH1 0x3 DUP3 ADD SSTORE PUSH2 0x13D2 JUMP JUMPDEST ADD MLOAD PUSH1 0x0 NOT PUSH1 0xF8 DUP5 PUSH1 0x3 SHL AND SHR NOT AND SWAP1 SSTORE DUP4 DUP1 DUP1 PUSH2 0x1AB3 JUMP JUMPDEST DUP2 DUP2 ADD MLOAD DUP4 SSTORE PUSH1 0x20 SWAP5 DUP6 ADD SWAP5 PUSH1 0x1 SWAP1 SWAP4 ADD SWAP3 SWAP1 SWAP2 ADD SWAP1 PUSH2 0x1A98 JUMP JUMPDEST ADD MLOAD SWAP1 POP DUP4 DUP1 PUSH2 0x1360 JUMP JUMPDEST SWAP3 POP PUSH1 0x2 DUP5 ADD PUSH1 0x0 MSTORE PUSH1 0x20 PUSH1 0x0 KECCAK256 SWAP1 PUSH1 0x0 SWAP4 JUMPDEST PUSH1 0x1F NOT DUP5 AND DUP6 LT PUSH2 0x1B59 JUMPI PUSH1 0x1 SWAP5 POP DUP4 PUSH1 0x1F NOT DUP2 AND LT PUSH2 0x1B40 JUMPI JUMPDEST POP POP POP DUP2 SHL ADD PUSH1 0x2 DUP3 ADD SSTORE PUSH2 0x1378 JUMP JUMPDEST ADD MLOAD PUSH1 0x0 NOT PUSH1 0xF8 DUP5 PUSH1 0x3 SHL AND SHR NOT AND SWAP1 SSTORE DUP4 DUP1 DUP1 PUSH2 0x1B30 JUMP JUMPDEST DUP2 DUP2 ADD MLOAD DUP4 SSTORE PUSH1 0x20 SWAP5 DUP6 ADD SWAP5 PUSH1 0x1 SWAP1 SWAP4 ADD SWAP3 SWAP1 SWAP2 ADD SWAP1 PUSH2 0x1B15 JUMP JUMPDEST ADD MLOAD SWAP1 POP DUP4 DUP1 PUSH2 0x12FD JUMP JUMPDEST SWAP3 POP PUSH1 0x1 DUP5 ADD PUSH1 0x0 MSTORE PUSH1 0x20 PUSH1 0x0 KECCAK256 SWAP1 PUSH1 0x0 SWAP4 JUMPDEST PUSH1 0x1F NOT DUP5 AND DUP6 LT PUSH2 0x1BD6 JUMPI PUSH1 0x1 SWAP5 POP DUP4 PUSH1 0x1F NOT DUP2 AND LT PUSH2 0x1BBD JUMPI JUMPDEST POP POP POP DUP2 SHL ADD PUSH1 0x1 DUP3 ADD SSTORE PUSH2 0x1315 JUMP JUMPDEST ADD MLOAD PUSH1 0x0 NOT PUSH1 0xF8 DUP5 PUSH1 0x3 SHL AND SHR NOT AND SWAP1 SSTORE DUP4 DUP1 DUP1 PUSH2 0x1BAD JUMP JUMPDEST DUP2 DUP2 ADD MLOAD DUP4 SSTORE PUSH1 0x20 SWAP5 DUP6 ADD SWAP5 PUSH1 0x1 SWAP1 SWAP4 ADD SWAP3 SWAP1 SWAP2 ADD SWAP1 PUSH2 0x1B92 JUMP JUMPDEST ADD MLOAD SWAP1 POP DUP4 DUP1 PUSH2 0x129D JUMP JUMPDEST SWAP3 POP DUP4 PUSH1 0x0 MSTORE PUSH1 0x20 PUSH1 0x0 KECCAK256 SWAP1 PUSH1 0x0 SWAP4 JUMPDEST PUSH1 0x1F NOT DUP5 AND DUP6 LT PUSH2 0x1C4D JUMPI PUSH1 0x1 SWAP5 POP DUP4 PUSH1 0x1F NOT DUP2 AND LT PUSH2 0x1C34 JUMPI JUMPDEST POP POP POP DUP2 SHL ADD DUP2 SSTORE PUSH2 0x12B2 JUMP JUMPDEST ADD MLOAD PUSH1 0x0 NOT PUSH1 0xF8 DUP5 PUSH1 0x3 SHL AND SHR NOT AND SWAP1 SSTORE DUP4 DUP1 DUP1 PUSH2 0x1C27 JUMP JUMPDEST DUP2 DUP2 ADD MLOAD DUP4 SSTORE PUSH1 0x20 SWAP5 DUP6 ADD SWAP5 PUSH1 0x1 SWAP1 SWAP4 ADD SWAP3 SWAP1 SWAP2 ADD SWAP1 PUSH2 0x1C0C JUMP JUMPDEST PUSH1 0x40 MLOAD PUSH3 0x461BCD PUSH1 0xE5 SHL DUP2 MSTORE PUSH1 0x20 PUSH1 0x4 DUP3 ADD MSTORE PUSH1 0x1F PUSH1 0x24 DUP3 ADD MSTORE PUSH32 0x5175616E74697479206D7573742062652067726561746572207468616E203000 PUSH1 0x44 DUP3 ADD MSTORE PUSH1 0x64 SWAP1 REVERT JUMPDEST PUSH1 0x40 MLOAD PUSH3 0x461BCD PUSH1 0xE5 SHL DUP2 MSTORE PUSH1 0x20 PUSH1 0x4 DUP3 ADD MSTORE PUSH1 0x15 PUSH1 0x24 DUP3 ADD MSTORE PUSH21 0x141C9BD91D58DD081B985B59481C995C5D5A5C9959 PUSH1 0x5A SHL PUSH1 0x44 DUP3 ADD MSTORE PUSH1 0x64 SWAP1 REVERT JUMPDEST PUSH1 0x40 MLOAD PUSH3 0x461BCD PUSH1 0xE5 SHL DUP2 MSTORE PUSH1 0x20 PUSH1 0x4 DUP3 ADD MSTORE PUSH1 0x11 PUSH1 0x24 DUP3 ADD MSTORE PUSH17 0x10985D18DA081251081C995C5D5A5C9959 PUSH1 0x7A SHL PUSH1 0x44 DUP3 ADD MSTORE PUSH1 0x64 SWAP1 REVERT JUMPDEST PUSH1 0x40 MLOAD PUSH3 0x461BCD PUSH1 0xE5 SHL DUP2 MSTORE PUSH1 0x20 PUSH1 0x4 DUP3 ADD MSTORE PUSH1 0x14 PUSH1 0x24 DUP3 ADD MSTORE PUSH20 0x426174636820616C726561647920657869737473 PUSH1 0x60 SHL PUSH1 0x44 DUP3 ADD MSTORE PUSH1 0x64 SWAP1 REVERT JUMPDEST CALLVALUE PUSH2 0x3DB JUMPI PUSH1 0x20 DUP1 PUSH1 0x3 NOT CALLDATASIZE ADD SLT PUSH2 0x3DB JUMPI PUSH1 0x4 CALLDATALOAD PUSH1 0x1 PUSH1 0x1 PUSH1 0x40 SHL SUB DUP2 GT PUSH2 0x3DB JUMPI PUSH2 0x1D90 SWAP1 CALLDATASIZE SWAP1 PUSH1 0x4 ADD PUSH2 0x20C8 JUMP JUMPDEST SWAP1 PUSH1 0x40 MLOAD DUP3 MLOAD SWAP3 PUSH2 0x1DC1 PUSH1 0xFF DUP5 DUP4 ADD SWAP6 PUSH2 0x1DAB DUP2 DUP7 DUP10 PUSH2 0x20E6 JUMP JUMPDEST DUP5 ADD SWAP4 DUP6 DUP2 PUSH1 0x2 SWAP7 DUP8 DUP2 MSTORE SUB ADD SWAP1 KECCAK256 SLOAD AND PUSH2 0x236F JUMP JUMPDEST PUSH2 0x1DD3 PUSH1 0x40 MLOAD SWAP5 DUP6 SWAP3 MLOAD SWAP3 DUP4 SWAP2 PUSH2 0x20E6 JUMP JUMPDEST DUP4 ADD SWAP3 DUP3 DUP2 PUSH1 0x3 SWAP6 DUP7 DUP2 MSTORE SUB ADD SWAP1 KECCAK256 SWAP1 DUP2 SLOAD SWAP1 PUSH2 0x1DEF DUP3 PUSH2 0x23D2 JUMP JUMPDEST SWAP5 PUSH2 0x1DFD PUSH1 0x40 MLOAD SWAP7 DUP8 PUSH2 0x2061 JUMP JUMPDEST DUP3 DUP7 MSTORE DUP5 DUP7 ADD SWAP2 DUP3 SWAP5 PUSH1 0x0 MSTORE DUP6 PUSH1 0x0 KECCAK256 SWAP2 PUSH1 0x0 SWAP4 JUMPDEST DUP6 DUP6 LT PUSH2 0x1ED9 JUMPI PUSH1 0x40 DUP1 MLOAD DUP10 DUP2 MSTORE DUP11 MLOAD DUP2 DUP12 ADD DUP2 SWAP1 MSTORE PUSH1 0x0 SWAP3 PUSH1 0x5 DUP3 SWAP1 SHL DUP4 ADD DUP2 ADD SWAP2 DUP12 SWAP2 DUP14 SWAP1 DUP6 ADD JUMPDEST DUP3 DUP8 LT PUSH2 0x1E49 JUMPI DUP6 DUP6 SUB DUP7 RETURN JUMPDEST SWAP1 SWAP2 SWAP3 SWAP4 DUP3 DUP1 PUSH1 0x1 SWAP3 PUSH1 0x3F NOT DUP10 DUP3 SUB ADD DUP6 MSTORE DUP8 MLOAD SWAP1 PUSH2 0x1EAE PUSH2 0x1E9B PUSH2 0x1E89 PUSH2 0x1E79 DUP6 MLOAD PUSH1 0xC0 DUP1 DUP8 MSTORE DUP7 ADD SWAP1 PUSH2 0x2109 JUMP JUMPDEST DUP7 DUP7 ADD MLOAD DUP6 DUP3 SUB DUP9 DUP8 ADD MSTORE PUSH2 0x2109 JUMP JUMPDEST PUSH1 0x40 DUP6 ADD MLOAD DUP5 DUP3 SUB PUSH1 0x40 DUP7 ADD MSTORE PUSH2 0x2109 JUMP JUMPDEST PUSH1 0x60 DUP1 DUP6 ADD MLOAD SWAP1 DUP5 DUP4 SUB SWAP1 DUP6 ADD MSTORE PUSH2 0x2109 JUMP JUMPDEST SWAP2 PUSH1 0x80 DUP7 DUP1 PUSH1 0xA0 SHL SUB DUP2 DUP4 ADD MLOAD AND SWAP1 DUP4 ADD MSTORE PUSH1 0xA0 DUP1 SWAP2 ADD MLOAD SWAP2 ADD MSTORE SWAP7 ADD SWAP3 ADD SWAP7 ADD SWAP6 SWAP3 SWAP2 SWAP1 SWAP3 PUSH2 0x1E3C JUMP JUMPDEST PUSH1 0x6 DUP9 PUSH1 0x1 SWAP3 PUSH1 0x40 SWAP12 SWAP11 SWAP12 MLOAD PUSH2 0x1EEE DUP2 PUSH2 0x202A JUMP JUMPDEST PUSH2 0x1EF7 DUP9 PUSH2 0x2195 JUMP JUMPDEST DUP2 MSTORE PUSH2 0x1F04 DUP6 DUP10 ADD PUSH2 0x2195 JUMP JUMPDEST DUP4 DUP3 ADD MSTORE PUSH2 0x1F13 DUP8 DUP10 ADD PUSH2 0x2195 JUMP JUMPDEST PUSH1 0x40 DUP3 ADD MSTORE PUSH2 0x1F23 DUP7 DUP10 ADD PUSH2 0x2195 JUMP JUMPDEST PUSH1 0x60 DUP3 ADD MSTORE DUP5 DUP1 PUSH1 0xA0 SHL SUB PUSH1 0x4 DUP10 ADD SLOAD AND PUSH1 0x80 DUP3 ADD MSTORE PUSH1 0x5 DUP9 ADD SLOAD PUSH1 0xA0 DUP3 ADD MSTORE DUP2 MSTORE ADD SWAP5 ADD SWAP5 ADD SWAP4 SWAP3 SWAP8 SWAP7 SWAP8 PUSH2 0x1E12 JUMP JUMPDEST CALLVALUE PUSH2 0x3DB JUMPI PUSH1 0x40 CALLDATASIZE PUSH1 0x3 NOT ADD SLT PUSH2 0x3DB JUMPI PUSH1 0x1 PUSH1 0x1 PUSH1 0x40 SHL SUB PUSH1 0x4 CALLDATALOAD DUP2 DUP2 GT PUSH2 0x3DB JUMPI PUSH2 0x1F85 SWAP1 CALLDATASIZE SWAP1 PUSH1 0x4 ADD PUSH2 0x20C8 JUMP JUMPDEST SWAP1 PUSH1 0x24 CALLDATALOAD SWAP1 DUP2 GT PUSH2 0x3DB JUMPI PUSH2 0x71E PUSH2 0x2015 PUSH2 0x1FC5 PUSH32 0xACCBCCA2781383A7C9AFF56F00C185CA721FC1E34BF89DDD4D18C757D78E7628 SWAP4 CALLDATASIZE SWAP1 PUSH1 0x4 ADD PUSH2 0x20C8 JUMP JUMPDEST SWAP4 PUSH1 0x9 PUSH2 0x1FFA PUSH1 0x20 PUSH1 0x40 MLOAD PUSH2 0x1FE9 PUSH1 0xFF DUP7 MLOAD SWAP3 DUP5 DUP2 DUP2 DUP11 ADD SWAP6 PUSH2 0x168 DUP2 DUP4 DUP10 PUSH2 0x20E6 JUMP JUMPDEST PUSH1 0x40 MLOAD DUP1 SWAP4 DUP2 SWAP3 DUP8 MLOAD SWAP3 DUP4 SWAP2 PUSH2 0x20E6 JUMP JUMPDEST DUP2 ADD PUSH1 0x1 DUP2 MSTORE SUB ADD SWAP1 KECCAK256 ADD PUSH1 0x3 PUSH1 0xFF NOT DUP3 SLOAD AND OR SWAP1 SSTORE PUSH2 0x23B2 JUMP JUMPDEST SWAP3 PUSH1 0x40 MLOAD SWAP2 DUP3 SWAP2 PUSH1 0x20 DUP4 MSTORE PUSH1 0x20 DUP4 ADD SWAP1 PUSH2 0x2109 JUMP JUMPDEST PUSH1 0xC0 DUP2 ADD SWAP1 DUP2 LT PUSH1 0x1 PUSH1 0x1 PUSH1 0x40 SHL SUB DUP3 GT OR PUSH2 0x7D4 JUMPI PUSH1 0x40 MSTORE JUMP JUMPDEST PUSH2 0x1C0 DUP2 ADD SWAP1 DUP2 LT PUSH1 0x1 PUSH1 0x1 PUSH1 0x40 SHL SUB DUP3 GT OR PUSH2 0x7D4 JUMPI PUSH1 0x40 MSTORE JUMP JUMPDEST SWAP1 PUSH1 0x1F DUP1 NOT SWAP2 ADD AND DUP2 ADD SWAP1 DUP2 LT PUSH1 0x1 PUSH1 0x1 PUSH1 0x40 SHL SUB DUP3 GT OR PUSH2 0x7D4 JUMPI PUSH1 0x40 MSTORE JUMP JUMPDEST SWAP3 SWAP2 SWAP3 PUSH1 0x1 PUSH1 0x1 PUSH1 0x40 SHL SUB DUP3 GT PUSH2 0x7D4 JUMPI PUSH1 0x40 MLOAD SWAP2 PUSH2 0x20AB PUSH1 0x1F DUP3 ADD PUSH1 0x1F NOT AND PUSH1 0x20 ADD DUP5 PUSH2 0x2061 JUMP JUMPDEST DUP3 SWAP5 DUP2 DUP5 MSTORE DUP2 DUP4 ADD GT PUSH2 0x3DB JUMPI DUP3 DUP2 PUSH1 0x20 SWAP4 DUP5 PUSH1 0x0 SWAP7 ADD CALLDATACOPY ADD ADD MSTORE JUMP JUMPDEST SWAP1 DUP1 PUSH1 0x1F DUP4 ADD SLT ISZERO PUSH2 0x3DB JUMPI DUP2 PUSH1 0x20 PUSH2 0x20E3 SWAP4 CALLDATALOAD SWAP2 ADD PUSH2 0x2082 JUMP JUMPDEST SWAP1 JUMP JUMPDEST PUSH1 0x0 JUMPDEST DUP4 DUP2 LT PUSH2 0x20F9 JUMPI POP POP PUSH1 0x0 SWAP2 ADD MSTORE JUMP JUMPDEST DUP2 DUP2 ADD MLOAD DUP4 DUP3 ADD MSTORE PUSH1 0x20 ADD PUSH2 0x20E9 JUMP JUMPDEST SWAP1 PUSH1 0x20 SWAP2 PUSH2 0x2122 DUP2 MLOAD DUP1 SWAP3 DUP2 DUP6 MSTORE DUP6 DUP1 DUP7 ADD SWAP2 ADD PUSH2 0x20E6 JUMP JUMPDEST PUSH1 0x1F ADD PUSH1 0x1F NOT AND ADD ADD SWAP1 JUMP JUMPDEST SWAP2 DUP2 PUSH1 0x1F DUP5 ADD SLT ISZERO PUSH2 0x3DB JUMPI DUP3 CALLDATALOAD SWAP2 PUSH1 0x1 PUSH1 0x1 PUSH1 0x40 SHL SUB DUP4 GT PUSH2 0x3DB JUMPI PUSH1 0x20 DUP4 DUP2 DUP7 ADD SWAP6 ADD ADD GT PUSH2 0x3DB JUMPI JUMP JUMPDEST SWAP1 PUSH1 0x1 DUP3 DUP2 SHR SWAP3 AND DUP1 ISZERO PUSH2 0x218B JUMPI JUMPDEST PUSH1 0x20 DUP4 LT EQ PUSH2 0x2175 JUMPI JUMP JUMPDEST PUSH4 0x4E487B71 PUSH1 0xE0 SHL PUSH1 0x0 MSTORE PUSH1 0x22 PUSH1 0x4 MSTORE PUSH1 0x24 PUSH1 0x0 REVERT JUMPDEST SWAP2 PUSH1 0x7F AND SWAP2 PUSH2 0x216A JUMP JUMPDEST SWAP1 PUSH1 0x40 MLOAD SWAP2 DUP3 PUSH1 0x0 DUP3 SLOAD SWAP3 PUSH2 0x21A9 DUP5 PUSH2 0x215B JUMP JUMPDEST SWAP1 DUP2 DUP5 MSTORE PUSH1 0x1 SWAP5 DUP6 DUP2 AND SWAP1 DUP2 PUSH1 0x0 EQ PUSH2 0x2218 JUMPI POP PUSH1 0x1 EQ PUSH2 0x21D5 JUMPI JUMPDEST POP POP PUSH2 0x21D3 SWAP3 POP SUB DUP4 PUSH2 0x2061 JUMP JUMPDEST JUMP JUMPDEST SWAP1 SWAP4 SWAP2 POP PUSH1 0x0 MSTORE PUSH1 0x20 SWAP1 DUP2 PUSH1 0x0 KECCAK256 SWAP4 PUSH1 0x0 SWAP2 JUMPDEST DUP2 DUP4 LT PUSH2 0x2200 JUMPI POP POP PUSH2 0x21D3 SWAP4 POP DUP3 ADD ADD CODESIZE DUP1 PUSH2 0x21C5 JUMP JUMPDEST DUP6 SLOAD DUP9 DUP5 ADD DUP6 ADD MSTORE SWAP5 DUP6 ADD SWAP5 DUP8 SWAP5 POP SWAP2 DUP4 ADD SWAP2 PUSH2 0x21E8 JUMP JUMPDEST SWAP2 POP POP PUSH2 0x21D3 SWAP5 POP PUSH1 0x20 SWAP3 POP PUSH1 0xFF NOT AND DUP3 DUP5 ADD MSTORE ISZERO ISZERO PUSH1 0x5 SHL DUP3 ADD ADD CODESIZE DUP1 PUSH2 0x21C5 JUMP JUMPDEST SWAP1 PUSH1 0x4 DUP3 LT ISZERO PUSH2 0x3C5 JUMPI MSTORE JUMP JUMPDEST PUSH1 0x40 PUSH1 0x3 NOT DUP3 ADD SLT PUSH2 0x3DB JUMPI PUSH1 0x4 CALLDATALOAD SWAP1 PUSH1 0x1 PUSH1 0x1 PUSH1 0x40 SHL SUB DUP3 GT PUSH2 0x3DB JUMPI PUSH2 0x2272 SWAP2 PUSH1 0x4 ADD PUSH2 0x20C8 JUMP JUMPDEST SWAP1 PUSH1 0x24 CALLDATALOAD SWAP1 JUMP JUMPDEST DUP1 SLOAD DUP3 LT ISZERO PUSH2 0x2295 JUMPI PUSH1 0x0 MSTORE PUSH1 0x6 PUSH1 0x20 PUSH1 0x0 KECCAK256 SWAP2 MUL ADD SWAP1 PUSH1 0x0 SWAP1 JUMP JUMPDEST PUSH4 0x4E487B71 PUSH1 0xE0 SHL PUSH1 0x0 MSTORE PUSH1 0x32 PUSH1 0x4 MSTORE PUSH1 0x24 PUSH1 0x0 REVERT JUMPDEST PUSH1 0x4 SLOAD DUP2 LT ISZERO PUSH2 0x2295 JUMPI PUSH1 0x4 PUSH1 0x0 MSTORE PUSH32 0x8A35ACFBC15FF81A39AE7D344FD709F28E8600B4AA8C65C6B64BFE7FE36BD19B ADD SWAP1 PUSH1 0x0 SWAP1 JUMP JUMPDEST SWAP1 PUSH1 0x1F DUP2 GT PUSH2 0x22F0 JUMPI POP POP POP JUMP JUMPDEST PUSH1 0x0 SWAP2 DUP3 MSTORE PUSH1 0x20 DUP3 KECCAK256 SWAP1 PUSH1 0x20 PUSH1 0x1F DUP6 ADD PUSH1 0x5 SHR DUP4 ADD SWAP5 LT PUSH2 0x232C JUMPI JUMPDEST PUSH1 0x1F ADD PUSH1 0x5 SHR ADD SWAP2 JUMPDEST DUP3 DUP2 LT PUSH2 0x2321 JUMPI POP POP POP JUMP JUMPDEST DUP2 DUP2 SSTORE PUSH1 0x1 ADD PUSH2 0x2315 JUMP JUMPDEST SWAP1 SWAP3 POP DUP3 SWAP1 PUSH2 0x230C JUMP JUMPDEST SWAP1 PUSH1 0x4 DUP2 LT ISZERO PUSH2 0x3C5 JUMPI PUSH1 0xFF DUP1 NOT DUP4 SLOAD AND SWAP2 AND OR SWAP1 SSTORE JUMP JUMPDEST SWAP1 DUP1 PUSH1 0x20 SWAP4 SWAP3 DUP2 DUP5 MSTORE DUP5 DUP5 ADD CALLDATACOPY PUSH1 0x0 DUP3 DUP3 ADD DUP5 ADD MSTORE PUSH1 0x1F ADD PUSH1 0x1F NOT AND ADD ADD SWAP1 JUMP JUMPDEST ISZERO PUSH2 0x2376 JUMPI JUMP JUMPDEST PUSH1 0x40 MLOAD PUSH3 0x461BCD PUSH1 0xE5 SHL DUP2 MSTORE PUSH1 0x20 PUSH1 0x4 DUP3 ADD MSTORE PUSH1 0x14 PUSH1 0x24 DUP3 ADD MSTORE PUSH20 0x10985D18DA08191BD95CC81B9BDD08195E1A5CDD PUSH1 0x62 SHL PUSH1 0x44 DUP3 ADD MSTORE PUSH1 0x64 SWAP1 REVERT JUMPDEST PUSH2 0x23CA SWAP1 PUSH1 0x20 PUSH1 0x40 MLOAD SWAP3 DUP3 DUP5 DUP1 SWAP5 MLOAD SWAP4 DUP5 SWAP3 ADD PUSH2 0x20E6 JUMP JUMPDEST DUP2 ADD SUB SWAP1 KECCAK256 SWAP1 JUMP JUMPDEST PUSH1 0x1 PUSH1 0x1 PUSH1 0x40 SHL SUB DUP2 GT PUSH2 0x7D4 JUMPI PUSH1 0x5 SHL PUSH1 0x20 ADD SWAP1 JUMP INVALID LOG2 PUSH5 0x6970667358 0x22 SLT KECCAK256 PUSH32 0x8467580074C9AF5B8AD8700EEBEE38EAB3A112DA61645380B6341FA1B52C7A64 PUSH20 0x6F6C634300081400330000000000000000000000 "},"methodIdentifiers":{"addQualityTest(string,string,string,string)":"f1d7130c","batchExists(string)":"e7903988","batchIds(uint256)":"b3d346b9","batches(string)":"7ef1446a","createBatch(string,string,string,string,string,uint256,string,string,string,bool,string)":"29b03843","getAllBatchIds()":"bce06947","getBatch(string)":"f9ca4274","getBatchCount()":"a8fabfa5","getQualityTests(string)":"1316a908","owner()":"8da5cb5b","qualityTests(string,uint256)":"95978f25","recallBatch(string,string)":"123ecac8","updateBatchStatus(string,uint256)":"ea654290"}}}}}